:020000040800F2
:1000000000300020C54800080D4900080D490008CF
:100010000D4900080D4900080D49000800000000C6
:100020000000000000000000000000000D49000872
:100030000D490008000000000D4900080D490008A6
:1000400000000000000000000000000000000000B0
:1000500000000000000000000000000000000000A0
:100060000000000000000000000000000000000090
:100070000000000000000000000000000000000080
:100080000000000000000000000000000000000070
:100090000000000000000000000000000000000060
:1000A0000000000000000000000000000000000050
:1000B0000000000000000000000000000000000040
:1000C0000000000000000000000000000000000030
:1000D0000000000000000000000000000000000020
:1000E0000000000000000000000000000000000010
:1000F0000000000000000000000000000000000000
:1001000000000000000000000000000000000000EF
:1001100000000000000000000000000000000000DF
:1001200000000000000000000000000000000000CF
:1001300000000000000000000000000000000000BF
:1001400000000000000000000000000000000000AF
:10015000000000000000000000000000000000009F
:10016000000000000000000000000000000000008F
:10017000000000000000000000000000000000007F
:08018000000000000000000077
:100190000348044B834202D0034B03B11847704716
:1001A00064000020640000200000000005480649AB
:1001B0000B1AD90F01EBA301491002D0034B03B175
:1001C0001847704764000020640000200000000011
:1001D00010B5064C237843B9FFF7DAFF044B13B18F
:1001E0000448AFF300800123237010BD6400002099
:1001F000000000001049000808B5044B1BB1044979
:100200000448AFF30080BDE80840CFE700000000DD
:1002100068000020104900082DE9F15F85B00868EA
:100220004A688B68CC680D694E69A0FB0278A0FB18
:10023000009AE0FB627AE2FB628ACDF800900197B7
:10024000A0FB0479A0FB03BC1BEB0B0B8EEA0E0E8C
:10025000E8FB6E8BEAFB6EABCDF80880E2FB637CBB
:100260007F41E7FB6E7A0397DA448F69D1F81C80EF
:10027000A0FB061BE0FB659CE2FB651CE0FB67BC8A
:10028000E2FB049EE3FB641EE2FB66BEE0FB68CE7D
:1002900059EB0909494180EA0000E3FB639ACDF874
:1002A0001090E1FB601AE3FB05B0E2FB670CE2FB98
:1002B00068CE5BEB0B0BE4FB64AB82EA0202E3FB70
:1002C0000602E3FB672CE3FB68CE83EA0303E4FB4F
:1002D0000503E4FB6623E4FB673CE4FB68CE404196
:1002E00089EA0909E0FB690B5241E5FB0639E5FBA8
:1002F000679CE5FB68CE84EA0404E6FB07C4E6FBE2
:10030000684EE5FB652B85EA05055B41E3FB653B34
:10031000E7FB08E559EB09095CEB0C0C64415EEB6B
:100320000E0E6D41E6FB669B86EA0606EBFB66BC9D
:10033000E7FB674CECFB66CEE8FB685E5EEB060E07
:100340004FF02607EEFB07064FF013084FEAD07E6A
:100350000EFB08F84FEA40004FEA5000DDF800E0DD
:10036000E2FB678E82EA0202E6FB07827244059E88
:10037000DDF804E0C6F80080E3FB672E7260029AA5
:10038000039BDDF81080E9FB672EB260EBFB673E54
:10039000F360E4FB678EC6F81080ECFB671E7161AA
:1003A000E5FB67AEC6F818A07044F06106B0BDE882
:1003B000F09F00BF2DE9F75F88B01068536894681C
:1003C000D56816690F68A7FB0389A7FB00ABCDF8BA
:1003D00000A08AEA0A0AAAFB0ACEE7FB049AE7FB16
:1003E00005ACE7FB06CE4F68E7FB608BE7FB639B42
:1003F000E7FB64ABE7FB65BCCDF8048088EA08083E
:10040000E7FB66CE8F68E7FB0098E7FB638AE7FBB4
:1004100064ABE7FB65BCCDF8089089EA0909E7FB06
:1004200066CECF68E7FB0089E7FB639AE7FB64AB26
:10043000E7FB65BCCDF80C8088EA0808E7FB66CED0
:100440000F69E7FB0098E7FB638AE7FB64ABE7FB18
:1004500065BCCDF8109089EA0909E7FB66CE4A69C8
:10046000E2FB0089E2FB639AE2FB64AB8A6987EAFC
:100470000707E2FB0097E2FB637AE2FB64ABCA6921
:10048000E2FB63ACE2FB64BC0A98436984690D68D3
:1004900086EA0606E5FB0386E5FB6469CDF8148071
:1004A000D0F81C80E5FB68794D6882EA0202E5FB22
:1004B00003620696E5FB6427E5FB68798D6886EAAA
:1004C0000606E5FB0326E5FB6467E5FB6879CD6876
:1004D000E5FB636AE5FB647AE5FB689A0D69E5FB79
:1004E000637BE5FB649BE5FB68ABCD69036884EA4D
:1004F0000404E5FB032407928A694B69C168E3FBA6
:100500006146E2FB6167E5FB61790169E3FB616ECE
:10051000E2FB617CE5FB619A4169E3FB617EE2FB02
:10052000619CE5FB61AB8169E3FB619EE2FB61AC31
:10053000E5FB61BCE3FB68AEE2FB68BEE5FB68CEB1
:1005400007980099019A4FF0260385EA0505EEFB0E
:1005500003054FF013084FEAD07E0EFB08F84FEA70
:1005600040004FEA5000E4FB631884EA0404E5FB12
:1005700003142244E6FB6328029C039D049EDDF8DD
:1005800014E0E7FB6348E9FB6358EAFB6368EBFBB5
:10059000638E069FDDF82090ECFB637E7044C9F803
:1005A0001C00C9F81870C9F81480C9F81060C9F89F
:1005B0000C50C9F80840C9F80420C9F800100BB065
:1005C000BDE8F09F014B1868704700BF0000002095
:1005D00070B50D4E0D4D761BB61006D000240134BB
:1005E00055F8043B9847A642F9D1094E094D761BB0
:1005F00004F08EF9B61006D00024013455F8043BFF
:100600009847A642F9D170BD644B0008644B0008BE
:10061000684B0008644B0008F0B4860746D0541EAF
:10062000002A3CD0CAB2034602E014F1FF3436D3AC
:1006300003F8012B9D07F8D1032C29D9CDB245EA47
:1006400005250F2C45EA054533D9A4F110063609D6
:1006500003F1200707EB061703F1100242E90455E6
:1006600042E902551032BA42F8D1721C14F00C0F54
:1006700003EB021204F00F0613D0331F23F0030321
:100680000433134442F8045B9342FBD106F00304A5
:100690002CB1C9B21C4403F8011B9C42FBD1F0BC35
:1006A000704734461346002CF3D1F8E7144603464E
:1006B000C2E71A462646E0E738B5124B1C68A26B23
:1006C00005461AB10023C2E9045338BD182000F0D2
:1006D00021F90246A06378B1012000210A4B136082
:1006E000C2E904010B230948094993810023C2E9A7
:1006F0000101C2E9045338BD064B0748422100F00E
:10070000AFF800BF000000200E33CDAB34126DE611
:10071000ECDE05009C4A0008B44A000838B51A4BC4
:100720001C68A26B92B1146918495369184801FBFF
:1007300004F100FB0313A4FB0045611C1D4445F1BB
:10074000000323F00040C2E9041338BD182000F074
:10075000E1F80246A06388B101200021C2E904014A
:100760000A480C4C0C4B0D490D4D146053600B2482
:10077000034695609481C2E9041338BD094B0A48C9
:100780004E2100F06DF800BF000000202DF45158FC
:100790002D7F954C0E33CDAB34126DE62E7F954CEC
:1007A000ECDE05009C4A0008B44A00080CB470B5A1
:1007B0009CB020AC0B4E54F8042B029123460691BA
:1007C0006FF0004502A901940795CDE9045600F0A9
:1007D00047FA029B00221A701CB0BDE8704002B0BC
:1007E000704700BF0802FFFF0EB430B59CB01FABCE
:1007F0000C4C0D4D53F8042B0193014602910691C8
:10080000206802A96FF000440794CDE9044500F088
:1008100027FA029B00221A701CB0BDE8304003B0DA
:10082000704700BF000000200802FFFF10B50B4B0F
:1008300084B0044600221868694600F057F8002882
:1008400006DBDDE900010CB1C4E9000104B010BD14
:100850004FF0FF304FF0FF31F5E700BF0000002000
:1008600000B50A4C2668054685B01C46F06852B1B2
:10087000074B0091CDE9013206492B46224600F094
:1008800021F800F0ABFF044B1A46F2E7000000200D
:10089000E84A0008F84A0008F44A000808B5134678
:1008A0000022FFF7DDFF00BF0CB400B583B004AB3E
:1008B00053F8042B019300F04FFB03B05DF804EBF9
:1008C00002B070470EB410B583B005AB064C53F8B8
:1008D000042B01930146206800F03EFB03B0BDE805
:1008E000104003B0704700BF0000002038B50B4631
:1008F000074C0546114618460023236001F0C4FE4C
:10090000431C00D038BD2368002BFBD02B6038BDC2
:1009100008020020024B0146186800F061B800BFD1
:1009200000000020024B0146186800F003B800BF29
:100930000000002000293CD038B551F8043C0C1FC1
:10094000002BB8BFE418054601F0D4FC234B1A680D
:100950002AB1A2420DD921686018824223D0626078
:1009600028461C60BDE8384001F0C6BCA34203D84D
:100970001A465368002BF9D111685018A04219D0BB
:1009800024D821686018834206D0636054602846EA
:10099000BDE8384001F0B0BCD3E900030144636016
:1009A00021605460F3E7D2E90002014462602160F3
:1009B000D6E7704720680144501883421160E6D1A1
:1009C000D3E90003014453601160E0E70C232B607E
:1009D0002846BDE8384001F08FBC00BF90010020E0
:1009E000F8B5CD1C25F0030508350C2D38BF0C25B6
:1009F000002D064633DBA94231D82A4F01F07AFC9C
:100A00003A6852B113685B1B04D43FE023685B1B58
:100A100029D522465468002CF8D1796800293BD0AA
:100A20002946304600F0E8FD431C28D0C41C24F0C1
:100A30000304A04205D0211A304600F0DDFD01304C
:100A40001DD02560304601F057FC04F10B0020F06A
:100A50000700231DC21A01D01B1AA350F8BD0C2297
:100A600032600020F8BD0B2B05D8A242636811D07C
:100A70005360E7E7144623601C442560E2E70C233B
:100A80003046336001F038FC0020F8BD0B2BF1D864
:100A9000536814463B60D5E7304600F0ADFD786002
:100AA000BEE700BF900100202DE9F0478E681D468B
:100AB000AE420C460B68174636D88046888910F43B
:100AC000906F0ED1354618462A46394601F0AAFBEA
:100AD000A2682368961B2B44A66023600020BDE813
:100AE000F087D1E9041606EB4606A3EB010906EBF5
:100AF000D6766B1C76104B44B342324684BF1E46FA
:100B00003246430512D511464046FFF769FF82463B
:100B100000B34A46216901F0EBFAA38923F49063FC
:100B200043F08003A38106E02E46CCE7404601F067
:100B3000E5FB824650B1A6EB09020AEB09036661A8
:100B4000C4F810A02360A2602E46BCE7216940468D
:100B5000FFF7F0FE0C23C8F80030A38943F04003F0
:100B6000A3814FF0FF30BAE72DE9F04F936883B0CF
:100B70009046002B6DD017688D6882460C46086839
:100B8000083743E0A38913F4906F2ED0D4E90415FD
:100B900005EB4505A0EB010B05EBD5750BEB06004E
:100BA0006D100130A8422A4684BF05462A465B05DF
:100BB00036D511465046FFF713FF00283AD05A4663
:100BC0002169019001F094FAA289019B22F49062BC
:100BD00042F08002A281A5EB0B0203EB0B006561E2
:100BE00023612060A2603546B3465A46494601F06B
:100BF00019FBD8F80830A2682068551B58449E1B82
:100C0000A5602060C8F808601EB3083757E902964F
:100C1000AB46002EF9D0AE42B4D23546B346E4E737
:100C2000504601F06BFB03460028D4D121695046A1
:100C3000FFF780FE0C23CAF80030A389002243F09E
:100C400040034FF0FF30A381C8E9012203B0BDE8A3
:100C5000F08F0020C8F8040003B0BDE8F08F00BF9B
:100C60002DE9F04F90468A899FB014068B4602907A
:100C700003D50A69002A00F00B81059330238DF813
:100C8000323098F800308E4E002120220B918DF8E2
:100C900031200127002B00F08480252B00F0F68006
:100CA000454603E0252B00F0868025466B786C1CBA
:100CB000002BF7D1B4EB080A73D04246534659468D
:100CC0000298FFF7F1FE01306BD00B9B6A7853441A
:100CD0000B93002A65D000234FF0FF3201340693B6
:100CE000CDE908338DF85B301C93079205E0069A36
:100CF00007FA03F313432C4606932546052215F8FD
:100D0000011B304601F0A4F9AA46831B0028EED14E
:100D1000069BD90644BF20228DF85B2021781A0754
:100D200044BF2B228DF85B202A2948D1059A1168EF
:100D30000432002905927EDB09916178A51C2E29D9
:100D400056D0604C0322204601F082F9002868D07A
:100D5000001B069B402404FA00F00343069305F1B0
:100D60000108297858488DF83010062201F070F9F2
:100D7000002866D0554B002B56D005AB00935A4641
:100D8000534B029806A9AFF300808146B9F1FF3FAB
:100D900007D00B9B4B440B9398F80030002B7FF44B
:100DA0007CAFBBF80C305B0654BF0B984FF0FF30A4
:100DB0001FB0BDE8F08FB4EB080A8CD07DE7A1F13D
:100DC0003002092A88BFA246B9D8099B01E02C4607
:100DD0000135297803EB830302EB4303A1F13002D1
:100DE000092AAA46F3D92E2904F102050993A8D1AC
:100DF0009AF801102A292ED1059B9AF802101A6838
:100E000007920433002A05930AF103050AF102034D
:100E100037DB2C4C032220469A4601F019F90028B2
:100E200096D1A84655469CE7059B073323F0070358
:100E300008330593ADE7494243F002030991069355
:100E40007BE705AB00935A46214B029806A900F0B8
:100E500087FA81469AE7A1F130020023092A079315
:100E600001D923E05546697803EB830302EB430382
:100E7000A1F13002092A05F1010AF3D902350793DD
:100E80005FE74FF0FF329A4607925AE7444622E75F
:100E900040210393FFF7A4FD039BCBF80000CBF8A0
:100EA000100030B14022CBF81420E6E6AA46013506
:100EB00047E7029A0C2313604FF0FF3078E700BF3A
:100EC000284B0008304B0008344B0008000000009D
:100ED000A90A00089368013B002B93600FDA10B455
:100EE0009469A34208DB0A2906D01368581C1060D5
:100EF0001970084610BC704710BC00F08FBB136817
:100F0000581C106019700846704700BF9BB1F8B5B7
:100F100013440F4606465D1E541E01E0AC4208D045
:100F20003A4614F8011F3046FFF7D4FF431CF5D1B1
:100F3000F8BD0020F8BD0020704700BF936810B5D1
:100F4000144613B95360184610BD00F02FFE00235D
:100F5000C4E9013310BD00BF2DE9F04F9FB08B46AF
:100F600090461C46039018B18369002B00F0B780AF
:100F7000A24B9B4500F0B980A14B9B4500F0C78078
:100F8000A04B9B4504BF039BD3F80CB0BBF80C30BF
:100F9000180740F1B280DBF81030002B00F0AD8074
:100FA00030238DF8323098F800300594002120224B
:100FB0000B918DF83120944E0127002B00F0878093
:100FC000252B00F01581454603E0252B00F0A3807A
:100FD00025466B786C1C002BF7D1B4EB080A76D051
:100FE0004246534659460398FFF790FF01306ED0B2
:100FF0000B9B6A7853440B93002A68D000234FF070
:10100000FF3201340693CDE908338DF85B301C9331
:10101000079205E0069A07FA03F313432C4606935A
:101020002546052215F8011B304601F011F8AA46A5
:10103000831B0028EED1069BD90644BF20228DF8E1
:101040005B2021781A0744BF2B228DF85B202A29C8
:1010500066D1059A1168043200290592C0F29D807C
:1010600009916178A51C2E2973D0684C0322204673
:1010700000F0EEFF002800F08680001B069B402455
:1010800004FA00F00343069305F10108297860484B
:101090008DF83010062200F0DBFF002800F083807E
:1010A0005C4B002B72D005AB00935A465A4B039809
:1010B00006A9AFF300808146B9F1FF3F07D00B9B33
:1010C0004B440B9398F80030002B7FF479AFBBF8BA
:1010D0000C305B0618D40B981FB0BDE8F08F00F001
:1010E00045FD464B9B457FF447AF039BD3F804B0C7
:1010F000BBF80C3018073FF54EAF5946039800F087
:10110000EDFA00283FF44CAF4FF0FF30E4E7039BCB
:10111000D3F808B03AE7B4EB080A3FF46FAF5FE7E3
:10112000A1F13002092A88BFA2469CD8099B01E0A0
:101130002C460135297803EB830302EB4303A1F12D
:101140003002092AAA46F3D92E2904F1020509938F
:101150008BD19AF801102A292FD1059B9AF80210F9
:101160001A6807920433002A05930AF103050AF16D
:10117000020338DB254C032220469A4600F068FF24
:1011800000287FF47AAFA84655467FE7059B0733D2
:1011900023F007030833059391E7494243F0020324
:1011A000099106935DE705AB00935A461A4B0398E5
:1011B00006A900F0D5F881467EE7A1F130020023B0
:1011C000092A079301D915E05546697803EB830393
:1011D00002EB4303A1F13002092A05F1010AF3D918
:1011E0000235079341E74FF0FF329A4607923CE7FA
:1011F000444603E7AA46013537E700BFA049000887
:101200008049000860490008284B0008304B00085E
:10121000344B0008000000000D0F000810B4044C0F
:1012200013460A460146206810BCFFF795BE00BF72
:10123000000000202DE9F0470C4691460A698968B4
:10124000DDF820808A42B8BF0A46C9F8002094F829
:10125000431006461F4611B10132C9F80020236829
:1012600099065CD5D9F800200232C9F8002023681D
:1012700013F0060F19461DD1E1688A1A002AD8BF5B
:10128000194617DD04F1190A002505E0E368D9F8CD
:1012900000209B1AAB420CDD0123524639463046F2
:1012A000C047013005F10105F0D14FF0FF30BDE836
:1012B000F087216894F84330003318BF01238A0671
:1012C0000AD5E1185A1C302081F84300224494F8D2
:1012D000451082F84310023304F143023946304688
:1012E000C0470130E1D02368A268216903F00603FA
:1012F000042B1DD08A4226DD4FF00009521A91447A
:101300001A34002501E04D451DDA012322463946F5
:101310003046C047013005F10105F4D1C5E713F0AF
:10132000060F13D094F84330003318BF0123D3E7DE
:10133000D9F80000E3688A42A3EB000323EAE379CB
:10134000DCDC002BDCDC0020BDE8F087E168D9F8AC
:1013500000208A1A002AD8BF194693DCAAE700BFEA
:101360002DE9F0430C46097E85B06E2906461746E6
:101370000C98984604F1430E6DD039D9732900F0CA
:10138000F68044D9752900F00481782940F0118154
:1013900078232268DFF858C284F8453001681506C2
:1013A00051F8043B016040F1A180D10744BF42F0F5
:1013B00020022260002B00F093801022002184F88C
:1013C00043106068A0600028C0F2C880216821F046
:1013D00004012160002B40F0A380002840F0C08071
:1013E0007546082A00F0AC80AEEB0503236141E0AE
:1013F000632900F0E5801AD8002938D0582940F038
:10140000D88084F845102268DFF8E8C1C6E76F2964
:1014100000F0BF80702940F0CC802268DFF8D0C196
:1014200042F020027823226084F84530B6E7642930
:1014300002D0692940F0BD8022680368110603F1DB
:10144000040557D5196805600B46002959DBDFF8FC
:10145000A4C10A22B5E70368226861691D1D056001
:1014600015061B6802D4500600F1BD8019600023E8
:1014700075462361CDF800803B4603AA21463046DD
:10148000FFF7D8FE013020D02A462369394630467E
:10149000C047013019D022680398E368920719D534
:1014A0001A1A002A16DD04F11909002504E0E36880
:1014B00003981A1AAA420DDD01234A4639463046DE
:1014C000C047013005F10105F1D14FF0FF3005B003
:1014D000BDE8F0839842B8BF184605B0BDE8F08378
:1014E000226822F020022260102267E7500648BFDF
:1014F0009BB25AE75106A5D5B3F9003005601946ED
:10150000A3E76168A1602D200029C3F1000384F8DE
:10151000430002DB22F004022260DFF8D8C00A2276
:10152000754600E00B46B3FBF2F102FB113093422B
:101530001CF8000005F8010DF4D2082A7FF454AF1E
:101540002368DB077FF550AF626823699A423FF753
:101550004BAF302305F8013C013D45E7002BDFD1BF
:101560009CF8003084F8423004F1420539E7036802
:101570006268191D01601D680021284600F068FDA1
:10158000002832D0401B60602061002384F8433083
:1015900070E72268036812F0800F03F104051AD087
:1015A0001B6805606F290CBF08220A22DFF844C0BF
:1015B00004E7012384F84210236104F14205E4E7C3
:1015C00003681A68191D0123016004F1420584F8BB
:1015D00042202361D9E712F0400F0DBF1B68056060
:1015E0001B880560DEE7198041E76068CCE700BF33
:1015F000504B00083C4B000838B5074C002305460B
:101600000846236003F040F9431C00D038BD23682E
:10161000002BFBD02B6038BD08020020F8B50D462A
:101620001446064608B1836943B3254B9C422AD031
:10163000244B9C4229D0244B9C4208BFF468A389C8
:10164000A269A2601A0722D5236903B322686169DF
:10165000D31AEDB299422F4629DD0133A168501CFF
:101660000139A1602060157062699A4216D0A38981
:10167000DB0701D50A2D11D03846F8BD00F076FA07
:101680000F4B9C42D4D17468D9E7B468D7E72146A0
:10169000304600F023F838B92369D7E721463046B1
:1016A00000F03AF90028E7D04FF0FF37E4E7214691
:1016B000304600F031F90028F6D122680123CDE749
:1016C000A04900088049000860490008024B0A460A
:1016D00001461868FFF7A2BF000000203B4B70B521
:1016E0001D6806460C460DB1AB69DBB1384B9C4218
:1016F0001ED0384B9C424AD0374B9C4208BFEC6806
:10170000B4F90C2093B2190718D5206908B313F067
:1017100001022CD0636900225B42A361A26060B326
:10172000002070BD284600F021FA294B9C42E0D1F0
:101730006C68B4F90C2093B21907E6D4DD063CD5E9
:10174000580726D4206942F00803A3819BB20028E1
:10175000DDD103F42072B2F5007FD8D030462146A7
:1017600000F026FCA389206913F00102D2D1990769
:1017700058BF6269A2600028D2D1B4F90C301A06B1
:10178000CFD543F04003A3814FF0FF3070BDAC686C
:10179000B6E7616B51B104F14403994204D030467D
:1017A000FFF7C8F8B4F90C20002363630023206915
:1017B000636022F024022060C5E742F04002092362
:1017C00033604FF0FF30A28170BD00BF00000020E9
:1017D000A0490008804900086049000808B50620B3
:1017E00000F038FE012000F07FFF00BF8B891A0750
:1017F0002DE9F0410C46804641D44A68002A59DD63
:10180000E66A002E53D00022D8F80050216AC8F8AA
:10181000002013F4805251D101234046B047431CAD
:101820005FD0A389E66A216A5F0705D56268636BAA
:10183000801A0BB1236CC01A024600234046B04701
:10184000461C45D1D8F80030B4F90C20002B55D0F7
:101850001D2B01D0162B5AD123690022C4E9003276
:10186000616BC8F8005011B304F14403994202D0EF
:101870004046FFF75FF800206063BDE8F0810E6925
:10188000AEB10D680E6099070CBF63690023AD1BF4
:10189000A3600AE02B463246A76A216A4046B84751
:1018A0000028A5EB000506440ADD002DF2DC00202F
:1018B000BDE8F0810A6C002AA2DCF8E7606DB3E7AE
:1018C000A38943F04003A3814FF0FF30BDE8F081CE
:1018D0002269A389226000226260DA04C0D56065B3
:1018E000BEE7D8F80030002B9BD01D2B0CD0162B58
:1018F0000AD0A38943F04003A381D9E72169C4E951
:101900000013D304ACD5EAE7C8F80050CFE742F0A3
:101910004002A281CCE700BF0B6923B310B5044697
:1019200082B008B18369BBB1104B994212D0104B01
:10193000994216D00F4B994208BFE168B1F90C30BB
:101940002BB1204602B0BDE81040FFF74FBF00208A
:1019500002B010BD6168F1E7019100F007F901994B
:10196000E2E7A168EAE70020704700BFA04900084D
:10197000804900086049000820B1054B01461868FD
:10198000FFF7CABF034B0449186800F0B9BA00BF9B
:10199000000000205C490008191900080020704769
:1019A000014900F0ADBA00BF1919000800207047C6
:1019B00070B54A1E682505FB02F50E4605F1740157
:1019C000FFF70EF8044640B100210C30666005F1C7
:1019D00068022160A060FEF71FFE204670BD00BFB8
:1019E0001E4B70B51D68AB69064643B34835D5E953
:1019F0000134013B05D51EE0013B5A1C04F168048B
:101A000019D0B4F90C20002AF6D10025144B6566D4
:101A1000C4E90055A560C4E90455A5612946E36001
:101A2000082204F15C00FEF7F7FDC4E90D55C4E996
:101A30001255204670BD2C682CB12546D7E72846A4
:101A400000F010F8D2E704213046FFF7B1FF04465A
:101A500028600028F1D10C233360EAE75C490008D4
:101A60000100FFFF2DE9F84F334B34491A688162BA
:101A700090424FF00003C0E91233036504BF012315
:101A800083610546FFF7ACFF68602846FFF7A8FFB3
:101A9000A8602846FFF7A4FF6E68E86000240423CE
:101AA000F3607466C6E90044B460C6E90444B461F6
:101AB000214606F15C000822FEF7AEFDDFF888B093
:101AC000AF68DFF888A0DFF88890DFF888801C4BCB
:101AD000C6F83080C6E9086BC6E90AA92146FB6052
:101AE00008227C66C7E90044BC60C7E90444BC61C5
:101AF00007F15C00FEF790FDEE68124BC7F83080EE
:101B0000C7E9087BC7E90AA92146F3607466C6E9FC
:101B10000044B460C6E90444B46106F15C000822E4
:101B2000FEF77AFD0123C6E9086BC6E90AA9C6F8E3
:101B30003080AB61BDE8F88F5C490008A11900084E
:101B40000900010012000200C5240008ED2400086D
:101B50002D2500084D250008024B0349186800F0A8
:101B6000CFB900BF5C49000819190008836903B99F
:101B700078E77047704700BF704700BF704700BFED
:101B8000704700BF024B0349186800F093B900BFCB
:101B9000000000209D190008024B0349186800F05E
:101BA00089B900BF00000020AD1900089368002B20
:101BB00000F002812DE9F04FB1F90C309BB20C46D8
:101BC000190783B08246904635D522699AB313F03F
:101BD0000202D8F800603DD00027D4F828B0D4F82D
:101BE00020C0DFF8CC923D464D452B463A4628BFF3
:101BF0004B4661465046D5B1D847002840F3D280C5
:101C0000D8F808301B1A07442D1AC8F80830002BE2
:101C100000F0B780D4F820C0D4F828B04D452B464A
:101C20003A4628BF4B4661465046002DE4D1D6E9DE
:101C300000750836D8E721465046FFF74FFD0028CB
:101C400040F03081B4F90C30D8F800609BB213F04A
:101C50000202C1D113F0010940F0B080A7682068EA
:101C60004D46002D54D09A0540F1BC80AF42BB4692
:101C700000F2E78013F4906F2FD0D4E9041707EB3C
:101C80004707A0EB010B07EBD777681C7F10584480
:101C9000B8423A4684BF07463A465B0540F1E980C0
:101CA00011465046FEF79CFE002800F0F5805A468B
:101CB0002169019000F01CFAA289019B22F4906234
:101CC00042F08002A281A7EB0B0203EB0B006761DD
:101CD00023612060A2602F46AB465A46494600F079
:101CE000A1FAA2682368D21B5B442F46A26023603E
:101CF0000025D8F80830DB1BB944C8F80830002BA1
:101D00003FD0B4F90C30A76820689BB2002DAAD14F
:101D1000D6E900950836A4E70BF1080353E90267FA
:101D20009B460833002FF9D03A460A21304600F08E
:101D30008FF9002853D00130A0EB06094B46D4E9B7
:101D400004122068BB4228BF3B46884203D9A568DD
:101D50001544AB4219DC9A427DDC1346A56A216A20
:101D600032465046A847051E1CDDB9EB05096BD06D
:101D70000120D8F808305B1B2E447F1BC8F80830C0
:101D800013BB002003B0BDE8F08F31462A4600F0B7
:101D900049FA23682B44236021465046FFF7BCFDD7
:101DA0000028E2D0B4F90C3043F040034FF0FF308C
:101DB000A38103B0BDE8F08F002070473346914601
:101DC000104617464E469B46002FA5D00028B5D199
:101DD0003A460A21304600F03BF90028ABD17B1C83
:101DE0009946ACE72369834215D36169A94212D8A9
:101DF0002E4BA76A9D4294BF2B466FF000434A4684
:101E000093FBF1F3504601FB03F3216AB847071E29
:101E1000C8DDED1B6DE7AF4228BF2F463A46494665
:101E200000F000FAA3682268DB1B3A44A36022603A
:101E3000002BEED121465046FFF76EFD0028E8D07A
:101E4000B0E72F46AB4648E721465046FFF764FD12
:101E500000288ED0A6E71A463146019300F0E2F939
:101E6000019BA1682268C91A1A44A16022601D461C
:101E70007BE7504600F042FA034600287FF423AF88
:101E800021695046FEF756FDB4F90C300C2223F0C0
:101E90008003CAF8002087E70C23CAF80030B4F9A1
:101EA0000C3081E74FF0FF306CE700BFFEFFFF7F93
:101EB00000FCFF7F2DE9F04110F148071BD0884658
:101EC0000026D7E90154013D0FD4A389012B05F168
:101ED000FF3506D9B4F90E300133204601D0C04792
:101EE00006436B1C04F16804EFD13F68002FE8D172
:101EF0003046BDE8F0813E463046BDE8F08100BF87
:101F00002DE9F84310F148071FD0884606464FF0E8
:101F10000009D7E90154013D11D4A389012B05F132
:101F2000FF3508D9B4F90E3001332146304602D0CE
:101F3000C04749EA00096B1C04F16804EDD13F6811
:101F4000002FE6D14846BDE8F883B9464846BDE8CB
:101F5000F88300BF70B50C46B1F90E10002996B099
:101F600016461D4613DB6A4600F01CFB00280EDBFC
:101F7000019A02F47042A2F50052B2FA82F25209BA
:101F80004FF4806300202A60336016B070BDA389CF
:101F900000221B062A6004D540230020336016B0BF
:101FA00070BD4FF480630020336016B070BD00BF79
:101FB0008A8992070B4606D501F1470201211A6072
:101FC000C3E90421704770B582B001AB6A460C4684
:101FD0000646FFF7BFFF009905463046FEF700FDB5
:101FE000B4F90C3070B11649B162019A00992060C1
:101FF00043F08003A381C4E904018AB92B43A38180
:1020000002B070BD9A05FBD423F0030304F147022C
:1020100043F002030121A3812260C4E90421EFE718
:102020003046B4F90E1000F0D1FA10B9B4F90C3002
:10203000E4E7A38923F0030343F001031BB2DDE7C8
:10204000A1190008000000000000000000000000CE
:1020500001F0FF01102A2BDB10F0070F08D010F859
:10206000013B013A8B422DD010F0070F42B3F6D15D
:10207000F0B441EA012141EA014122F007047FF076
:1020800000070023F0E80256083C85EA010586EACD
:10209000010685FA47F5A3FA87F586FA47F6A5FA09
:1020A00087F68EB9EED1F0BC01F0FF0102F0070215
:1020B00032B110F8013B013A83EA010313B1F8D1C0
:1020C0000020704701387047002D06BF35460338A1
:1020D000073815F0010F07D1013015F4807F02BFDA
:1020E000013015F4C03F0130F0BC0138704700BF2B
:1020F000844641EA000313F003036DD1403A41D313
:1021000051F8043B40F8043B51F8043B40F8043BD1
:1021100051F8043B40F8043B51F8043B40F8043BC1
:1021200051F8043B40F8043B51F8043B40F8043BB1
:1021300051F8043B40F8043B51F8043B40F8043BA1
:1021400051F8043B40F8043B51F8043B40F8043B91
:1021500051F8043B40F8043B51F8043B40F8043B81
:1021600051F8043B40F8043B51F8043B40F8043B71
:1021700051F8043B40F8043B51F8043B40F8043B61
:10218000403ABDD2303211D351F8043B40F8043B01
:1021900051F8043B40F8043B51F8043B40F8043B41
:1021A00051F8043B40F8043B103AEDD20C3205D311
:1021B00051F8043B40F8043B043AF9D2043208D009
:1021C000D2071CBF11F8013B00F8013B01D30B887B
:1021D00003806046704700BF082A13D38B078DD059
:1021E00010F003038AD0C3F10403D21ADB071CBF2B
:1021F00011F8013B00F8013B80D331F8023B20F895
:10220000023B7BE7043AD9D3013A11F8013B00F8CD
:10221000013BF9D20B7803704B7843708B78837055
:10222000604670478842F0B40DD98B1883420AD9B2
:10223000841832B1224613F8014D02F8014D99423B
:10224000F9D1F0BC70470F2A0ED80346541E002A5D
:10225000F7D001340C44013B11F8012B03F8012F96
:10226000A142F9D1F0BC704740EA01039B073BD182
:10227000A2F110073F0901F1200606EB071601F154
:10228000100300F1100453F8105C44F8105C53F88C
:102290000C5C44F80C5C53F8085C44F8085C53F898
:1022A000045C44F8045C1033B34204F11004EAD136
:1022B0007B1C1B0112F00C0F194402F00F050344A4
:1022C00015D0043DAD0803EB850C1C1F0E4656F8D7
:1022D000047B44F8047F6445F9D10135AD002B44FB
:1022E000294402F00302B1E7541E0346B1E72A462F
:1022F000ACE700BF704700BF704700BF09B3F8B537
:102300001446CAB106460D4600F088F9A04202D331
:102310002F463846F8BD21463046FEF761FB07469A
:102320000028F6D022462946FFF7E2FE304629462D
:10233000FEF700FB3846F8BD2746FEF7FBFA3846A5
:10234000F8BD1146FEF74CBB10B580210446FEF7E0
:1023500047FB606440B1031F00227C3043F8042F28
:102360008342FBD1002010BD4FF0FF3010BD00BFF5
:10237000436C0BB100207047E6E700BF1F2970B522
:10238000054608D8436C16460C464BB153F824005A
:1023900043F8246070BD162202604FF0FF3070BD1C
:1023A000FFF7D2FF08B96B6CF0E74FF0FF3070BD5C
:1023B0001F2938B521D8426C05460C466AB152F83F
:1023C000213053B1012B16D0591C10D000252046C6
:1023D00042F824509847284638BD284600F070F847
:1023E000224601462846BDE8384000F055B816237D
:1023F0000360012038BD002038BD162303604FF074
:10240000FF3038BD1F2921D838B5436C05460C462E
:1024100083B153F8242003EB84034AB1511C10D03C
:10242000012A0CD0002520461D609047284638BD63
:10243000012038BDFFF788FF28B96B6CE9E703205E
:1024400038BD022038BD4FF0FF3038BD4FF0FF30AF
:10245000704700BF024B01461868FFF7A9BF00BFD5
:1024600000000020024B0A4601461868FFF786BFAD
:1024700000000020034B1868436C0BB1002070472C
:1024800062E700BF00000020024B01461868FFF71A
:10249000B9BF00BF0000002038B50B46074C054609
:1024A000114618460023236000F0FEF8431C00D0BC
:1024B00038BD2368002BFBD02B6038BD08020020FC
:1024C00000F0DAB810B50C46B1F90E1000F0AEF815
:1024D000002803DB636D0344636510BDA38923F407
:1024E0008053A38110BD00BF002070472DE9F0414B
:1024F0001646B1F90C201F46D3050C460546B1F926
:102500000E1009D422F48052A2813B46324628465E
:10251000BDE8F04100F01EB80022022300F068F888
:10252000B4F90C20B4F90E10ECE700BF10B50C465E
:10253000B1F90E1000F05CF8A389421C0EBF23F421
:10254000805343F480536065A38110BDB1F90E1030
:1025500000F016B870B50D46084C114606461A46EE
:1025600028460023236000F0B7F8431C00D070BD5C
:102570002368002BFBD0336070BD00BF0802002031
:1025800038B5074C002305460846236000F064F880
:10259000431C00D038BD2368002BFBD02B6038BD16
:1025A0000802002038B50B46074C05461146184670
:1025B0000023236000F058F8431C00D038BD236886
:1025C000002BFBD02B6038BD0802002038B5074C2B
:1025D000002305460846236000F05EF8431C00D047
:1025E00038BD2368002BFBD02B6038BD08020020CB
:1025F00070B50D46084C114606461A46284600237B
:10260000236000F059F8431C00D070BD2368002BF4
:10261000FBD0336070BD00BF0802002051F8043CBD
:10262000181F002BBCBF0B58C018704770B50D4663
:10263000084C114606461A4628460023236000F03F
:1026400043F8431C00D070BD2368002BFBD03360DF
:1026500070BD00BF08020020024B58221A604FF0E4
:10266000FF30704708020020024B58221A604FF0DA
:10267000FF30704708020020024B58221A604FF0CA
:10268000FF30704708020020024B58221A604FF0BA
:10269000FF30704708020020024B58221A600020C9
:1026A000704700BF08020020024B58221A604FF00A
:1026B000FF30704708020020024B58221A604FF08A
:1026C000FF30704708020020024B58221A604FF07A
:1026D000FF30704708020020024B58221A604FF06A
:1026E000FF30704708020020FEE700BF10B59AB027
:1026F00000F05EF8044600F08DF80649221801A8A3
:10270000FEF772F801AA1021722000F009FF0020E4
:102710001AB010BDC049000810B59AB001F068F8B1
:1027200000F016F9044601F06BF82246054901A8AD
:10273000FEF75AF801AA1021722000F0F1FE0020E5
:102740001AB010BDD449000810B5044601F050F885
:1027500022461021722000F0E3FE01F051F8002023
:1027600010BD00BF08B500F0A3FF00F0E1FF01F0CD
:102770001BF800F089FE0020FEF758F8FDF79CFFDB
:10278000084A1021612000F0B3FE074A10216220A0
:1027900000F0AEFE054A1021652000F0A9FE00F011
:1027A00019FFFCE7ED260008192700084927000853
:1027B00010B5B2B002A82022002300F0E5FD0023EE
:1027C00020220AA800F0E0FD02A912A800F0C8FD2E
:1027D0000AA91AA800F0C4FD1AAA02A922A800F0AA
:1027E0004DFA12AA0AA92AA800F048FA2AAA00213A
:1027F00022AB1446019101E0A34207D013F8010B6C
:1028000012F8011B8842F7D001230193019832B0DE
:1028100010BD00BF2DE9F041484E494F0FCED8B052
:102820006D462C460FC496E80F0084E80F000FCFCA
:1028300008AC26460FC697E80F0086E80F0023462F
:102840000DF13F0213F8011D02F8011FAB42F9D14F
:1028500010AB0DF15F0213F8011D02F8011FA34236
:10286000F9D1384F384E394D0FCF40AC0FC497E8EF
:102870000F0084E80F000FCE48AC0FC496E80F009D
:1028800084E80F000FCD50AC0FC495E80F0040AFA7
:1028900084E80F0010A920A800F062FD28AE20AB4C
:1028A0003846852103E0B34245D010F8011F13F8E4
:1028B000012B8A42F7D04FF0010818A9304600F0EA
:1028C0004FFD30AD48A93346DE2003E0AB4207D0D0
:1028D00011F8010F13F8014B8442F7D048F00208B9
:1028E000324610A950AE284600F0C8F938AC284648
:1028F00031464A2303E0A04207D011F8013F10F807
:10290000012B9A42F7D048F0040820AA18A92046C3
:1029100000F0B4F920464A2303E0874207D016F8B6
:10292000013F10F8012B9A42F7D048F008084046C2
:1029300058B0BDE8F0814FF00008BEE7E849000854
:102940000C4A0008304A0008544A0008784A000837
:1029500070B5224E224D0FCEB0B06C460FC496E833
:102960000F0084E80F000FCD08AC0FC495E80F00EE
:1029700084E80F0008A803466C460DF13F0213F8E7
:10298000011D02F8011FA342F9D110AB0DF15F0246
:1029900013F8011D02F8011F8342F9D1114D0FCD2B
:1029A00028AC0FC495E80F0084E80F0010A920A8F8
:1029B00000F0D6FC28A920AB0C46852203E0A342F8
:1029C00008D011F8012F13F8010B9042F7D0012025
:1029D00030B070BD002030B070BD00BFE8490008C5
:1029E0000C4A0008304A000810B44B1E01F11F04C5
:1029F000421E13F8011F02F8011FA342F9D1C37F41
:102A000010BC03F07F03C377704700BF0B1F04386F
:102A10001C3153F8042F40F8042F8B42F9D1704732
:102A200070B404395242041F00F11C0654F8040F1C
:102A300051F8045F80EA050313405840B44283EA2A
:102A4000050320600B60F1D170BC70470023C0E922
:102A50000033C0E90233C0E90433C0E906337047EC
:102A600000230122C0E90023C0E90233C0E9043396
:102A7000C0E90633704700BF2DE9F003C769FA0FBC
:102A8000013202EBC203011F02EB43020C4600239A
:102A900000F1180654F8045F12EB050843F1000931
:102AA000A6424A464FF00003F4D119EB070243F166
:102AB0000003D40F44EA430404EBC40304EB4302D1
:102AC000BC46002351F8047FD41943F100058E421F
:102AD0002A460C604FF00003F4D11CEB050222F0F3
:102AE0000042BDE8F003C261704700BF38B50D4633
:102AF00004460846FFF7C0FF621E6B1E05F11F006B
:102B000013F8011F02F8011F8342F9D138BD00BF3D
:102B10002DE9F041069E14460746304698460D467C
:102B2000FDF77AFB31462046FDF776FB214620462D
:102B3000FDF772FB2A4621464046FDF73BFC324634
:102B400041463846FDF736FC39462046FDF764FB22
:102B5000424621464046FDF72DFC41462046FDF702
:102B60005BFB21462046FDF757FB21462046FDF73B
:102B700053FB21462046FDF74FFB21462046FDF73B
:102B80004BFB424621464046FDF714FC4146204699
:102B9000FDF742FB092521462046FDF73DFB6B1E54
:102BA00013F0FF05F7D1424621463046FDF702FCFF
:102BB00031462046FDF730FB132521462046FDF720
:102BC0002BFB6B1E13F0FF05F7D132462146204642
:102BD000FDF7F0FB21462046FDF71EFB09252146A7
:102BE0002046FDF719FB6B1E13F0FF05F7D1424697
:102BF00021463046FDF7DEFB31462046FDF70CFB53
:102C0000312521462046FDF707FB6A1E12F0FF051D
:102C1000F7D1324621464046FDF7CCFB41462046DF
:102C2000FDF7FAFA632521462046FDF7F5FA6A1EFC
:102C300012F0FF05F7D1424621462046FDF7BAFBC8
:102C4000322521462046FDF7E7FA6B1E13F0FF05FB
:102C5000F7D1324621462046FDF7ACFB052521463B
:102C60002046FDF7D9FA6B1E13F0FF05F7D1214678
:102C70003A463846BDE8F041FDF79CBB2DE9F047E8
:102C8000CCB0074642AB481E4AAD114610F8014F82
:102C900003F8014B9D42F9D19DF827319DF80801B9
:102CA000DFF8B88612AE03F07F0343F0400320F054
:102CB000070230468DF827318DF80821FFF794FE82
:102CC00032A8FFF7CDFE31462AA8FFF79FFE1AA8CB
:102CD000FFF7C6FE22A8FFF7B9FE4FF00009FE235A
:102CE0004A934C46012501E09DF82C914CA9C3F371
:102CF000C7020A4403F0070312F8281C41FA03F341
:102D000003F0010383EA09094A462AA91AA88DF8A3
:102D10002C31FFF785FE4A4632A922A8FFF780FE34
:102D200002AB1AAA22A92846D2F81CE0D1F81CC08E
:102D3000E146EEFB60E9ECFB00E94FF0130C09FB08
:102D40000CFCD2F80090D1F800A0E0FB6C9AC3F81C
:102D50000090D2F804C0D1F80490E0FB6C9AC3F85C
:102D60000490D2F808C0D1F80890E0FB6C9AC3F840
:102D70000890D2F80CC0D1F80C90E0FB6C9AC3F824
:102D80000C90D2F810C0D1F81090E0FB6C9AC3F808
:102D90001090D2F814C0D1F81490E0FB6C9AC3F8EC
:102DA0001490D2F818C0D1F81890E0FB6C9AC3F8D0
:102DB00018900AEB5E0AC3F81CA00AAB1AAA22A953
:102DC0002046D2F81CC0D1F81CE0BCEB0E0C7EEB08
:102DD0000E0E1CEB0C095EEB0E0E4CF0004CC3F813
:102DE0001CC0AEF1010C6FF0120E0CFB0EFCD1F802
:102DF00000E0D2F80090E0FB60ECB9EB0E09C3F8FC
:102E00000090D1F804E0D2F80490E0FB60EC79EB9C
:102E10000E09C3F80490D1F808E0D2F80890E0FB5E
:102E200060EC79EB0E09C3F80890D1F80CE0D2F809
:102E30000C90E0FB60EC79EB0E09C3F80C90D1F834
:102E400010E0D2F81090E0FB60EC79EB0E09C3F8CB
:102E50001090D1F814E0D2F81490E0FB60EC79EB1C
:102E60000E09C3F81490D1F818E0D2F81890E0FBDE
:102E700060EC79EB0E09C3F81890D3F81C9079EB4D
:102E80000C09C3F81C901AAB2AAA32A92846D2F81A
:102E90001CE0D1F81CC0E146EEFB60E9ECFB00E968
:102EA0004FF0130C09FB0CFCD2F80090D1F800A0F5
:102EB000E0FB6C9AC3F80090D2F804C0D1F80490FB
:102EC000E0FB6C9AC3F80490D2F808C0D1F80890DF
:102ED000E0FB6C9AC3F80890D2F80CC0D1F80C90C3
:102EE000E0FB6C9AC3F80C90D2F810C0D1F81090A7
:102EF000E0FB6C9AC3F81090D2F814C0D1F814908B
:102F0000E0FB6C9AC3F81490D2F818C0D1F818906E
:102F1000E0FB6C9AC3F818900AEB5E0AC3F81CA099
:102F200022AB2AAA32A92046D2F81CC0D1F81CE054
:102F3000BCEB0E0C7EEB0E0E1CEB0C095EEB0E0ECA
:102F40004CF0004CC3F81CC0AEF1010C6FF0120E37
:102F50000CFB0EFCD1F800E0D2F80090E0FB60EC36
:102F6000B9EB0E09C3F80090D1F804E0D2F8049050
:102F7000E0FB60EC79EB0E09C3F80490D1F808E0AF
:102F8000D2F80890E0FB60EC79EB0E09C3F80890EA
:102F9000D1F80CE0D2F80C90E0FB60EC79EB0E0974
:102FA000C3F80C90D1F810E0D2F81090E0FB60EC80
:102FB00079EB0E09C3F81090D1F814E0D2F8149010
:102FC000E0FB60EC79EB0E09C3F81490D1F818E03F
:102FD000D2F81890E0FB60EC79EB0E09C3F818907A
:102FE000D3F81C9079EB0C09C3F81C9002AA22A913
:102FF0002AA8FDF7DFF90AAA1AA922A8FDF7DAF92B
:103000001AAB22AA2AA92846D2F81CE0D1F81CC083
:10301000E146EEFB60E9ECFB00E94FF0130C09FB25
:103020000CFCD2F80090D1F800A0E0FB6C9AC3F839
:103030000090D2F804C0D1F80490E0FB6C9AC3F879
:103040000490D2F808C0D1F80890E0FB6C9AC3F85D
:103050000890D2F80CC0D1F80C90E0FB6C9AC3F841
:103060000C90D2F810C0D1F81090E0FB6C9AC3F825
:103070001090D2F814C0D1F81490E0FB6C9AC3F809
:103080001490D2F818C0D1F81890E0FB6C9AC3F8ED
:1030900018900AEB5E0AC3F81CA032AB2AAA22A938
:1030A0002046D2F81CC0D1F81CE0BCEB0E0C7EEB25
:1030B0000E0E1CEB0C095EEB0E0E4CF0004CC3F830
:1030C0001CC0AEF1010C6FF0120E0CFB0EFCD1F81F
:1030D00000E0D2F80090E0FB60ECB9EB0E09C3F819
:1030E0000090D1F804E0D2F80490E0FB60EC79EBBA
:1030F0000E09C3F80490D1F808E0D2F80890E0FB7C
:1031000060EC79EB0E09C3F80890D1F80CE0D2F826
:103110000C90E0FB60EC79EB0E09C3F80C90D1F851
:1031200010E0D2F81090E0FB60EC79EB0E09C3F8E8
:103130001090D1F814E0D2F81490E0FB60EC79EB39
:103140000E09C3F81490D1F818E0D2F81890E0FBFB
:1031500060EC79EB0E09C3F81890D3F81C9079EB6A
:103160000C09C3F81C901AA92AA8FDF755F832A932
:103170001AA8FDF751F832461AA932A8FDF71AF934
:1031800002A91AA8FDF748F80AA902A8FDF744F811
:1031900022AB1AAA02A92046D2F81CC0D1F81CE022
:1031A000BCEB0E0C7EEB0E0E1CEB0C095EEB0E0E58
:1031B0004CF0004CC3F81CC0AEF1010C6FF0120EC5
:1031C0000CFB0EFCD1F800E0D2F80090E0FB60ECC4
:1031D000B9EB0E09C3F80090D1F804E0D2F80490DE
:1031E000E0FB60EC79EB0E09C3F80490D1F808E03D
:1031F000D2F80890E0FB60EC79EB0E09C3F8089078
:10320000D1F80CE0D2F80C90E0FB60EC79EB0E0901
:10321000C3F80C90D1F810E0D2F81090E0FB60EC0D
:1032200079EB0E09C3F81090D1F814E0D2F814909D
:10323000E0FB60EC79EB0E09C3F81490D1F818E0CC
:10324000D2F81890E0FB60EC79EB0E09C3F8189007
:10325000D3F81C9079EB0C09C3F81C901AAA02A9A8
:103260001046FDF7A7F80AAB22AA02A94046D1F8FA
:103270001CC0D2F81C9000EB000AE646EAFB69CEBF
:103280004FF0130909FB0EFED2F800A0D1F8009010
:10329000E0FB6A9EC3F80090D2F804A0D1F8049035
:1032A000E0FB6A9EC3F80490D2F808A0D1F8089019
:1032B000E0FB6A9EC3F80890D2F80CA0D1F80C90FD
:1032C000E0FB6A9EC3F80C90D2F810A0D1F81090E1
:1032D000E0FB6A9EC3F81090D2F814A0D1F81490C5
:1032E000E0FB6A9EC3F81490D2F818A0D1F81890A9
:1032F000E0FB6A9EC3F818900EEB5C0CC3F81CC090
:1033000022AA0AA91046FDF755F84A9B013B002B5B
:103310004A93BFF6E9AC9DF82C412AA922461AA887
:10332000FFF77EFB224632A922A8FFF779FB22A9EC
:1033300032AB2AAA08460096FFF7EAFB1AA922AA8E
:103340000846FDF737F81AA8FFF796FB38461AA982
:10335000FFF7CCFB00204CB0BDE8F08742DB01005A
:10336000014AFFF78BBC00BF2849000838B5FDF7BC
:10337000D5F90546FDF7D2F9C402FDF7CFF984EA85
:10338000C554604038BD00BF002B08BF042A2DE99A
:10339000F84390469946074618D314461D460646FC
:1033A000FFF7E4FF043C45F1FF35002D08BF042C76
:1033B00046F8040BF4D2B8F1040323F003030433FA
:1033C00008F0030290461F444FF0000958EA090331
:1033D00001D1BDE8F883FFF7C9FFB84407F8010B36
:1033E000B8454FEA1020F9D1BDE8F88301207047B5
:1033F000002847DDF0B400234F1C0CE0D454A6F1A4
:103400003004E5B2092D1AD8D55C45EA0414D45429
:10341000013398421FD017F8135011F81360A5F12B
:103420003004E4B2092CE9D9A5F14104052C15D8E2
:10343000373DA6F13004D554E5B2092DE4D9A6F103
:103440004104052C11D8D45C373E44EA0616D65404
:1034500001339842DFD10020F0BC7047A5F1610430
:10346000052C0CD8573DD554C9E7A6F16104052CAD
:1034700005D8D45C573E44EA0616D654C8E7012066
:10348000F0BC704700207047154B1A680F2A25DCE6
:1034900003EB0211762030B4124D0871501C002449
:1034A0001028C1E902450C74186015D003EB001018
:1034B00077210171911C0C4D846010290474C56042
:1034C000196009D003EB011108488C60033279259B
:1034D0000C741A600D71C86030BC7047704700BF33
:1034E00080000020ED330008813500085D350008BC
:1034F00070B40A4D2B680F2B0DDCBF290BD805EBE0
:10350000031600243071013334742046C6E90212D8
:103510002B6070BC7047012070BC70478000002099
:1035200070B50E46144600F08FF97EB10A4D264460
:1035300023781B09E85C00F087F914F8013B03F0DD
:103540000F03E85C00F080F9A642F1D1BDE87040BD
:103550000A2000F079B900BF4849000800B5074BC0
:1035600083B01B688DF807300DF10702012172202E
:10357000FFF7D6FF002003B05DF804FB80000020B9
:10358000F0B5134F396811F0FF0C8DB015D0002243
:10359000134603EB43000CAC07EB0313013220444A
:1035A000D2B21E799D681C7C00F8306C62451346CF
:1035B00000F82F5C00F82E4CEBDB01EB4101C9B2A7
:1035C0006A467220FFF7ACFF00200DB0F0BD00BFCF
:1035D000800000202DE9F041344FADF5127D00F060
:1035E00017F93968002928DD00233D1D01E08B42D1
:1035F0001FD01C0101332A5D8242F8D13D192B7C7A
:10360000DB0720D4AB685B0033D032AE002507EB7C
:10361000040808E00D280CD0D8F8083006F8010B93
:10362000B5EB430F25D200F0F3F80A2805F10105A8
:10363000F0D10DF5127DBDE8F081FAD000243D19DE
:103640002B7CDB07DED500238DF8083000F0E0F896
:103650008DF8C80000F0DCF832A98DF8C90002AA84
:103660000120FFF7C5FE0028E3D19DF80830AB60CC
:10367000C9E700F0CDF80A2801D00D28D9D13C4483
:1036800002AAA56832A92846FFF7B2FE0028D0D1C9
:10369000E368E9B202A8984701AA034601217A200B
:1036A0008DF80430FFF73CFFC3E700BF8000002027
:1036B000F0B597B0002403274FF4A0230CA80125F0
:1036C000CDE90C731094149400F0D0F821460F2328
:1036D00002A8CDE90235CDE90444069400F01EFCB1
:1036E000114B124E5A6942F400225A615B690A97E3
:1036F00003F40023019330464FF4C04307A9079316
:10370000019ACDE9085400F0F1FC2A4630464FF406
:10371000005100F0D9FD2A4630464FF4804100F0B8
:10372000D3FD17B0F0BD00BF0010024000080048F4
:1037300030B5032289B04FF4C06502200121CDE9E4
:103740000512CDE90350154C07230793636943F431
:1037500000336361636903F40033019303A94FF0FD
:103760009040019B00F0C2FC0D480E4B0360A36922
:1037700043F48043A361A36903F4804302934FF4AD
:10378000164100230C22C0E90233029C41604261D1
:103790000361836100F01AFF09B030BD00100240E0
:1037A0009801002000380140104B70B55A6942F46E
:1037B00000325A615B6986B003F4003300934FF422
:1037C000805403230122002501A94FF09040CDE948
:1037D0000142CDE90353009E00F088FC2A462146B1
:1037E0004FF0904000F070FD06B070BD0010024038
:1037F00001224FF480514FF0904000F065BD00BFB2
:1038000000224FF480514FF0904000F05DBD00BFAA
:1038100030B50B4D0B4C83B003E0236A43F0080333
:10382000236241F2883301220DF10701284600F09E
:10383000A1FF0028F1D19DF8070003B030BD00BF03
:10384000980100200038014010B582B0044641F2D2
:10385000883301220DF1070103488DF8074000F07D
:103860001FFF02B010BD00BF980100202DE9F041FC
:103870000168CE0782B059D5B64A536803F00C03ED
:10388000042B00F04F81536803F00C03082B00F069
:1038900045814368B3F5803F17D0002B00F0E681E7
:1038A000B3F5A02F00F02B83AA4B1A6822F48032C4
:1038B0001A601A6822F480221A60A64A8468D36AC1
:1038C00023F00F032343D3620AE0A24A136843F4B0
:1038D00080331360D36A846823F00F032343D362D9
:1038E0009D4ADFF8708217687C1C146066374FF0C1
:1038F000000C4FF400354FF0010E05E00134BC42DE
:103900004FF0010C00F0AD8195FAA5F3D8F80060F6
:1039100095FAA5F3B3FA83F303F01F030EFA03F34A
:103920003342EBD0BCF1000F00D014608C074BD5B4
:10393000884B5A6812F00C0F00F018815A6802F098
:103940000C02082A00F00E810669002E00F0F681B4
:10395000012696FAA6F3B3FA83F303F1845303F531
:1039600084139B007C4A1E601768DFF8E8C1B91910
:10397000116004374FF0000E022405E00131B94216
:103980004FF0010E00F0A08194FAA4F3DCF800508F
:1039900094FAA4F3B3FA83F303F01F0306FA03F3D4
:1039A0002B42EBD0BEF1000F00D01160694CF82221
:1039B000216892FAA2F24369B2FA82F221F0F80188
:1039C00093400B43236001680B0732D58669002EB4
:1039D00000F0E380012191FAA1F4604B5E4ADFF828
:1039E00074E1B4FA84F423449B008C461960166891
:1039F0007418146004360027022105E00134B44233
:103A00004FF0010700F02D8191FAA1F391FAA1F393
:103A100091FAA1F3DEF8245091FAA1F3B3FA83F3FB
:103A200003F01F030CFA03F32B42E7D007B1146035
:103A300001684F0733D5474BDA69D60000F1DD80C6
:103A4000DA69474E42F08052DA61DB6903F0805355
:103A50000193019B316811F480714FF0010400F073
:103A6000D4803D4A1368C768012F00F09681002F6B
:103A700000F02F813749052F0D6A00F0C68125F02F
:103A800001050D620D6A25F004050D628AE107B19A
:103A9000166024B12F4AD36923F08053D361C369E0
:103AA000002B37D02B4D6A6802F00C02082A70D028
:103AB000022B4FF0807300F0B08193FAA3F3B3FAB6
:103AC00083F303F1845303F584139B00224A0027F8
:103AD0001F601668711C06F54336116006F5A17665
:103AE0004FF000704FF0010C05E00131B1424FF092
:103AF000010700F0E98090FAA0F32C6890FAA0F397
:103B0000B3FA83F303F01F030CFA03F32342ECD15F
:103B100007B11160002002B0BDE8F0815368DD03F9
:103B20007FF5B7AE4FF4003393FAA3F2094A146855
:103B300093FAA3F3B3FA83F303F01F03012202FA0B
:103B400003F323423FF4F2AE4368002B7FF4EEAE62
:103B50001FE000BF0010024084010020208190106F
:103B6000007000405B68DA033FF5EEAE022393FA83
:103B7000A3F2B64A146893FAA3F3B3FA83F303F0FB
:103B80001F03012202FA03F3234259D0036993422F
:103B900056D0012002B0BDE8F081012797FAA7F1C5
:103BA000AB4BAC4ADFF8A4E2B1FA81F10B449B00C5
:103BB00002211E601368DC19146003F1040C04E098
:103BC000013464454FF001064BD091FAA1F391FA0C
:103BD000A1F391FAA1F3DEF8245091FAA1F3B3FA1C
:103BE00083F303F01F0307FA03F32B42E8D10168C4
:103BF000002E3FF41EAF14601BE7974E316811F49E
:103C000080714FF000047FF42CAF3368914A43F485
:103C100080733360176807F1010CC2F800C0663783
:103C2000634605E00133BB424FF0010100F0E38041
:103C30003568ED05F6D5002900F0E580136012E740
:103C4000824DF8222C6892FAA2F24369B2FA82F20B
:103C500024F0F804934023432B600B077FF5E9AE73
:103C6000B4E60320146002B0BDE8F081774F794AD2
:103C70003C6824F480343C603C6824F480243C603C
:103C8000FC6A856824F00F042C43FC6215686C1CE8
:103C900005F1660E9C4614604FF400354FF00108A4
:103CA00004E0013474454FF0010CDAD095FAA5F325
:103CB0003E6895FAA5F3B3FA83F303F01F0308FAFD
:103CC00003F33342EDD12DE60320116002B0BDE8CD
:103CD000F0815E4D296A21F001012962296A5E1C8A
:103CE00021F0040C03F59C51C5F820C00A31AC4604
:103CF000166002254FF0010E14E095FAA5F3DCF8EA
:103D0000248095FAA5F3B3FA83F303F01F030EFAA8
:103D100003F313EA080F3FF4BAAE01368E424FF0B8
:103D2000010708D095FAA5F395FAA5F3002BE4D086
:103D3000DCF82080E5E716600320ECE6012797FA1F
:103D4000A7F3B3FA83F303F1845303F584139B00C1
:103D5000404A1E601368DFF8F4E0DC19146003F1D8
:103D6000040C022105E0013464454FF001063FF4E4
:103D700078AF91FAA1F3DEF8005091FAA1F3B3FA0B
:103D800083F303F01F0307FA03F32B42EBD101681F
:103D9000002E3FF419AE146016E62C4D296A41F04E
:103DA000010129625E1C03F59C51DFF8A0E016605A
:103DB0000A314FF0000C0225012713E095FAA5F314
:103DC000DEF8248095FAA5F3B3FA83F303F01F031A
:103DD00007FA03F313EA080F10D101368E424FF0B1
:103DE000010CA8D095FAA5F395FAA5F3002BE5D020
:103DF000DEF82080E6E7136003208CE6BCF1000FBC
:103E00007FF446AE45E663462DE645F004050D62B7
:103E10000D6A45F001050D62C4E793FAA3F3B3FA06
:103E200083F303F1845303F584139900094A0023B3
:103E30000B601768791C07F543379C46116007F53E
:103E4000A1774FF000744FF0010E0DE0001002401A
:103E50002081901084010020007000400131B9429F
:103E60004FF0010C3FF430AF94FAA4F32E6894FAAB
:103E7000A4F3B3FA83F303F01F030EFA03F3334200
:103E8000ECD1BCF1000F00D01160234E436A716881
:103E9000006A21F4741103430B4373604FF0807385
:103EA00093FAA3F3B3FA83F303F1845303F5841372
:103EB0009B0001271F601568E91905F5433511605E
:103EC00005F5A1754FF0000C4FF0007005E00131D1
:103ED000A9424FF0010C3FF4F7AE90FAA0F334681A
:103EE00090FAA0F3B3FA83F303F01F0307FA03F386
:103EF0002342ECD0BCF1000F7FF40BAE0AE603F1D5
:103F00008043A3F53C331A6842F480221A601A6891
:103F100042F480321A60D0E400100240704A136804
:103F200003F007038B420BD2136823F007030B4304
:103F30001360136803F007038B4201D00120704720
:103F40000368F0B49D0706D5664C8568626822F068
:103F5000F0022A436260DC0732D54468012C00F08D
:103F60008A80022C57D0022292FAA2F55D4D2F686A
:103F700092FAA2F2B2FA82F202F01F02012606FAC7
:103F800002F23A422CD06A68574E22F003022243D2
:103F90006A6037687A1C07F59C5732600A374FF021
:103FA000000C05E00132BA424FF0010C00F09480A1
:103FB0006C6814F00C0FF5D1BCF1000F00D032602A
:103FC000474C226802F007028A420CD9226822F08C
:103FD00007020A432260226802F007028A4202D0E6
:103FE0000120F0BC70475A0706D53E49C4684A68AC
:103FF00022F4E06222434A6013F0080302D1002059
:10400000F0BC7047374A0169536823F4605343EAB0
:10401000C1035360F3E74FF0007292FAA2F4314DFE
:104020002E6892FAA2F2B2FA82F202F01F02012482
:1040300004FA02F23242D3D06A682B4E22F0030215
:1040400042F002026A6037687C1C07F59C573460B6
:104050000A374FF0000C04E00134BC424FF0010C71
:1040600037D06A6802F00C02082AF5D1BCF1000FC3
:10407000A6D03460A4E74FF4003292FAA2F5194DAD
:104080002E6892FAA2F2B2FA82F202F01F0204FA49
:1040900002F23242A4D06A68134E22F0030242F0C8
:1040A00001026A6037687C1C07F59C5734600A3748
:1040B0004FF0000C04E00134BC424FF0010C08D07A
:1040C0006A6802F00C02042AF5D1BCF1000FD0D1CD
:1040D00076E73460032093E73260032090E700BF67
:1040E0000020024000100240840100202DE9F04F22
:1040F0000E6883B0002E00F08F80DFF8C8C1002367
:104100004FF0010808FA03F515EA060E7FD04C6857
:1041100024F0100ABAF1020F00F08180D0F800B04C
:104120004FEA4309032202FA09F204F003072BEADB
:10413000020B07FA09F70AF1FF3A47EA0B07BAF14F
:10414000010F6FEA0202076040F28F80C7688D6836
:104150003A4005FA09F51543E700C56057D5544DB7
:10416000AA6942F00102AA61AA6923F0030505F1D8
:10417000804502F0010205F58035019203F003024B
:104180004FEA820A019FAF680F2202FA0AF9B0F1E2
:10419000904F27EA090713D0464A90427ED0464AFC
:1041A00090427FD0454A904272D0454A904213BF18
:1041B00005224FF0040909FA0AF202FA0AF217433B
:1041C000AF60DCF80020E5036FEA0E0754BF3A4009
:1041D0004EEA0202CCF80020DCF80450A20354BFDF
:1041E0003D404EEA0505CCF80450DCF80850E202E8
:1041F00054BF3D404EEA0505CCF80850DCF80C20D1
:10420000A40254BF3A404EEA0202CCF80C2001331B
:1042100036FA03F27FF476AF03B0BDE8F08F4FEAD1
:10422000D30900EB890903F00707D9F82020BF0064
:104230004FF00F0A0AFA07FB22EA0B0A0A69BA4092
:1042400042EA0A02C9F82020D0F800A04FEA430948
:10425000032202FA09F204F003072AEA020A07FA23
:1042600009F747EA0A07D2430760876807EA020AA4
:10427000CF6807FA09F747EA0A078760D0F804A071
:10428000C4F300172AEA05059F402F4347605DE706
:104290004FF0030909FA0AF2174391E708FA0AF204
:1042A00017438DE74FF0020909FA0AF2174387E72F
:1042B000001002400004004800080048000C0048BC
:1042C00000100048000401400AB18161704781621A
:1042D000704700BF03688268196870B40569466951
:1042E0008C4C2A43C569324321F4164121F00C015C
:1042F0002A430A431A605968C668826921F440510A
:10430000314359609968066A21F4306132430A43A7
:10431000A3429A6047D0804A934211D07F4A934289
:1043200000F0CC807E4A934200F0DE807D4A9342CA
:1043300000F08880B5F5004F1DD0012070BC70479B
:1043400002F5E632126B02F44032B2F5003F6BD058
:1043500016D812B1B2F5803FECD1B5F5004F2CD094
:1043600041684A0802F5E102B2FBF1F292B2002084
:1043700070BCDA6070470022012070BCDA607047C0
:10438000B2F5403FD6D1B5F5004F71D041684A082B
:1043900002F5740202F51052B2FBF1F292B2002063
:1043A00070BCDA607047604A126B02F00302013A97
:1043B000022A10D9B5F5004F2AD14268510801F5FB
:1043C0006101B1FBF2F1C1F3420221F00F010A4396
:1043D00092B20020D1E75549B5F5004F8A5C55D01F
:1043E000082AAAD801A151F822F000BF61430008B1
:1043F000114400088D4300083B4300086143000856
:104400003B4300083B4300083B4300082F4400089F
:1044100042684049530803F5E103B3FBF2F39BB252
:10442000002070BCCB607047B5F5004F1BD04168D1
:104430004A0802F50042B2FBF1F292B2002070BCD1
:10444000DA60704702F5E032126B02F44002B2F516
:10445000000FE9D015D8002A3FF47FAFB2F5800FE6
:104460003FF47BAF66E74268510801F58031A8E769
:1044700041684A0802F1F47202F59042B2FBF1F190
:10448000A1E7B2F5400F3FF47EAF53E7082A3FF6AD
:1044900072AF01A151F822F0BB430008BB430008F2
:1044A0007144000877430008BB43000877430008C5
:1044B00077430008774300086744000802F5E432B8
:1044C000126B02F44022B2F5002FADD007D8002ABB
:1044D0003FF443AFB2F5802F3FF43FAF2AE7B2F588
:1044E000402F3FF450AF25E702F5E232126B02F4A1
:1044F0004012B2F5001F97D007D8002A3FF42DAF25
:10450000B2F5801F3FF429AF14E7B2F5401F3FF426
:104510003AAF0FE700380140004400400048004037
:10452000004C004000500040001002405849000874
:10453000F0B405460168244E0024EC6630680B6830
:10454000421C1F0732600ED500F10077013704E0EE
:104550000132BA424FF0010423D0CB6913F40013A7
:10456000F6D004B132600B685B0710D53268C043E7
:10457000002706E001328418B4F1007F4FF00107F4
:104580000FD2CB6913F48003F4D007B1326020233B
:10459000002085F8693085F8680085F86A30F0BC3D
:1045A00070470868326020F4D07008608A68202460
:1045B00022F001028A6085F8694085F8683085F844
:1045C0006A400320F0BC70478401002050B310B54E
:1045D00090F86930044603F0FF02F3B12268242307
:1045E00084F86930136823F0010313602046FFF755
:1045F00071FE012814D023685A6822F490425A6050
:104600009A6822F02A029A601A6842F00102204653
:104610001A60BDE81040FFF78BBF80F86820DDE727
:10462000012010BD0120704784461C48F0B5059D4F
:10463000DCF800600768DB434FF0000E01E06C1C03
:104640000DD1F46931EA04040CBF01240024944222
:10465000F5D0BEF1000F00D007600020F0BDC5B15D
:104660000137DC19A5424FF0010EEAD2076033682A
:1046700023F4D0733360B368202223F001030021B8
:10468000B3608CF869208CF868108CF86A200320DD
:10469000F0BDBEF1000FE9D1E9E700BF84010020C1
:1046A000F0B5044690F86900202883B05AD10D4631
:1046B000002954D0002A52D01E4694F86830012BAD
:1046C00050D02B49A4F8502000202123E06684F824
:1046D0006930A4F852200F68B4F85230781C0122D7
:1046E0009BB2086084F868204BB929E0226813F86F
:1046F000011B1185B4F8522092B21D4602B3B4F8E2
:1047000052200096013A92B2A4F852203B46002271
:1047100080212046FFF788FF2B4630BBA268B2F508
:10472000805FE3D12269002AE0D135F8023B22689C
:10473000C3F308031385B4F8522092B2002ADED1E5
:1047400000963B46002240212046FFF76DFF60B9EE
:10475000202384F8680084F8693003B0F0BD01209C
:1047600003B0F0BD022003B0F0BD032003B0F0BDE4
:10477000840100202DE9F041044690F86A002028C9
:1047800082B065D10D4600295ED0002A5CD01E465D
:1047900094F86830012B5BD03A4B2068D3F8008046
:1047A000A168012784F868704FF0FF37076208F1AD
:1047B00001001860B1F5805F4FF000004FF0220358
:1047C000E066A4F8582084F86A30A4F85A204DD046
:1047D000002941D0B4F85C70B4F85A309BB253B998
:1047E00029E02268928C3A4003F8012BB4F85A2051
:1047F00092B21D46FAB1B4F85A200096013A92B22C
:10480000A4F85A204346002220212046FFF70CFF3F
:104810002B4638BBA268B2F5805FE2D12269002A3C
:10482000DFD123689B8C3B4025F8023BB4F85A202B
:1048300092B2002ADFD10020202384F86A3084F865
:10484000680002B0BDE8F081012002B0BDE8F0814F
:10485000022002B0BDE8F081236973B17F27A4F87C
:104860005C70B9E7032002B0BDE8F081236923B989
:1048700040F2FF17A4F85C70AEE7FF27A4F85C7065
:10488000AAE700BF840100200C4A08B5136833B1C1
:1048900018446946884208D81060184608BD084B7D
:1048A0001360184469468842F6D9FBF78BFE0C2347
:1048B00003604FF0FF33184608BD00BF8C01002095
:1048C00010020020002103E00B4B5B5843500431E1
:1048D0000A480B4B42189A42F6D30A4A02E00023D8
:1048E00013600432084B9A42F9D3AFF30080FBF710
:1048F0006FFEFDF737FFFEE76C4B0008000000205D
:1049000064000020640000200C020020FEE700008C
:10491000F8B500BFF8BC08BC9E467047F8B500BFAC
:08492000F8BC08BC9E4670477C
:104928000900000000000000000000000000000076
:10493800000000000000000000000000000000006F
:1049480030313233343536373839414243444546BD
:10495800040802000400002000000000000000001D
:10496800000000000000000000000000000000003F
:10497800000000000000000000000000000000002F
:10498800000000000000000000000000000000001F
:10499800000000000000000000000000000000000F
:1049A80000000000000000000000000000000000FF
:1049B80000000000000000005465737473206F75D8
:1049C80074707574203A20256C75000053616E6907
:1049D800747920636865636B203A20256C75000044
:1049E8006A2CB91DA5FB77B12A99C0EB872F4CDF3C
:1049F8004566B25172C1163C7DA518730A6D0770E1
:104A0800000000006BE088FF278B2F1CFDB61826DE
:104A180029B13B6FE60E80838B7FE1794B8A4A622E
:104A28007E08AB58000000008520F0098930A754A3
:104A3800748B7DDCB43EF75A0DBF3A0D26381AF454
:104A4800EBA4A98EAA9B4E6A00000000DE9EDB7DC7
:104A58007B7DC1B4D35B61C2ECE435373F8343C887
:104A68005B78674DADFC7E146F882B4F000000000B
:104A78004A5D9D5BA4CE2DE1728E3BF480350F25F7
:104A8800E07E21C947D19E3376F09B3C1E16174223
:104A9800000000005245454E54206D616C6C6F63F8
:104AA8002073756363656564656400002E2E2F2E80
:104AB8002E2F2E2E2F2E2E2F2E2E2F2E2E2F2E2E09
:104AC8002F2E2E2F6E65776C69622F6C6962632FAB
:104AD8007374646C69622F72616E642E63000000E7
:104AE8002C2066756E6374696F6E3A2000000000B2
:104AF800617373657274696F6E2022257322206654
:104B080061696C65643A2066696C652022257322A8
:104B18002C206C696E65202564257325730A0000B6
:104B2800232D302B20000000686C4C00656667451B
:104B38004647000030313233343536373839414250
:104B480043444546000000003031323334353637AF
:0C4B58003839616263646566000000008B
:044B6400F90100084B
:044B6800D10100086F
:104B6C000400002000000000A04900088049000853
:104B7C006049000800000000000000000000000078
:104B8C000000000000000000000000000000000019
:104B9C000000000000000000000000000000000009
:104BAC0000000000000000000000000000000000F9
:104BBC0000000000000000000000000000000000E9
:044BCC0000000000E5
:04000005080048C5E2
:00000001FF
