:020000040800F2
:1000000000300020F57300083D7400083D740008BE
:100010003D7400083D7400083D74000800000000B5
:100020000000000000000000000000003D74000817
:100030003D740008000000003D7400083D74000895
:1000400000000000000000000000000000000000B0
:1000500000000000000000000000000000000000A0
:100060000000000000000000000000000000000090
:100070000000000000000000000000000000000080
:100080000000000000000000000000000000000070
:100090000000000000000000000000000000000060
:1000A0000000000000000000000000000000000050
:1000B0000000000000000000000000000000000040
:1000C0000000000000000000000000000000000030
:1000D0000000000000000000000000000000000020
:1000E0000000000000000000000000000000000010
:1000F0000000000000000000000000000000000000
:1001000000000000000000000000000000000000EF
:1001100000000000000000000000000000000000DF
:1001200000000000000000000000000000000000CF
:1001300000000000000000000000000000000000BF
:1001400000000000000000000000000000000000AF
:10015000000000000000000000000000000000009F
:10016000000000000000000000000000000000008F
:10017000000000000000000000000000000000007F
:08018000000000000000000077
:100190000348044B834202D0034B03B11847704716
:1001A00064010020640100200000000005480649A9
:1001B0000B1AD90F01EBA301491002D0034B03B175
:1001C000184770476401002064010020000000000F
:1001D00010B5064C237843B9FFF7DAFF044B13B18F
:1001E0000448AFF300800123237010BD6401002098
:1001F000000000004074000808B5044B1BB104491E
:100200000448AFF30080BDE80840CFE700000000DD
:1002100068010020407400082DE9F15F85B008688E
:100220004A688B68CC680D694E69A0FB0278A0FB18
:10023000009AE0FB627AE2FB628ACDF800900197B7
:10024000A0FB0479A0FB03BC1BEB0B0B8EEA0E0E8C
:10025000E8FB6E8BEAFB6EABCDF80880E2FB637CBB
:100260007F41E7FB6E7A0397DA448F69D1F81C80EF
:10027000A0FB061BE0FB659CE2FB651CE0FB67BC8A
:10028000E2FB049EE3FB641EE2FB66BEE0FB68CE7D
:1002900059EB0909494180EA0000E3FB639ACDF874
:1002A0001090E1FB601AE3FB05B0E2FB670CE2FB98
:1002B00068CE5BEB0B0BE4FB64AB82EA0202E3FB70
:1002C0000602E3FB672CE3FB68CE83EA0303E4FB4F
:1002D0000503E4FB6623E4FB673CE4FB68CE404196
:1002E00089EA0909E0FB690B5241E5FB0639E5FBA8
:1002F000679CE5FB68CE84EA0404E6FB07C4E6FBE2
:10030000684EE5FB652B85EA05055B41E3FB653B34
:10031000E7FB08E559EB09095CEB0C0C64415EEB6B
:100320000E0E6D41E6FB669B86EA0606EBFB66BC9D
:10033000E7FB674CECFB66CEE8FB685E5EEB060E07
:100340004FF02607EEFB07064FF013084FEAD07E6A
:100350000EFB08F84FEA40004FEA5000DDF800E0DD
:10036000E2FB678E82EA0202E6FB07827244059E88
:10037000DDF804E0C6F80080E3FB672E7260029AA5
:10038000039BDDF81080E9FB672EB260EBFB673E54
:10039000F360E4FB678EC6F81080ECFB671E7161AA
:1003A000E5FB67AEC6F818A07044F06106B0BDE882
:1003B000F09F00BF2DE9F04F82B043F0010380EAC7
:1003C000030420F47F4024F47F444FEA733320F089
:1003D000FE0024F0FE0423F0802301F11C0ECDF872
:1003E00000E0CD69D66900FB05F700FB06F8E4FBE9
:1003F000067AE4FB058ABFB21FFA88F8A3FB079AC6
:100400004FEA3343A3FB08BE4FEA33434FEA354577
:100410004FEA364600FB05F700FB06F8E4FB0676DC
:10042000E4FB05854FEA07474FEA0848E3FB079AD4
:100430004FEA3343E3FB08BE4FEA334329F000455C
:100440002BF00046D561CE614FEAD9794FEADB7BCC
:1004500049EA4A094BEA4E0B4FF01305A9FB059AEE
:10046000ABFB05BE01910D68166800FB05F700FBAC
:1004700006F8E4FB0671E4FB0581BFB21FFA88F8B9
:10048000E3FB079A4FEA3343E3FB08BE4FEA3343EB
:100490004FEA35454FEA364600FB05F700FB06F804
:1004A000E4FB0676E4FB05854FEA07474FEA084878
:1004B000E3FB079A4FEA3343E3FB08BE4FEA3343BB
:1004C000C2F800900199C1F800B0D146F3464FF050
:1004D000000A4FF0000E01F1040102F10402009D38
:1004E000A942BFD115680E684D445E4415600E6088
:1004F000BDE8F38FF0B5CA6B130C92B226277A438E
:100500007B43CC691D0C1B040026A4187541E4181C
:10051000754162005208C261E40F6D002C43132242
:1005200062430C681219002373410C6A250CA4B2B3
:100530007D437C43121973412C042D0C12196B411D
:1005400002604C681B19002272414C6A250CA4B24F
:100550007D437C431B1972412C042D0C1B196A41ED
:1005600043608C681219002373418C6A250CA4B275
:100570007D437C43121973412C042D0C12196B41DD
:100580008260CC681B1900227241CC6A250CA4B28F
:100590007D437C431B1972412C042D0C1B196A41AD
:1005A000C3600C691219002373410C6B250CA4B2B3
:1005B0007D437C43121973412C042D0C12196B419D
:1005C00002614C691B19002272414C6B250CA4B2CC
:1005D0007D437C431B1972412C042D0C1B196A416D
:1005E00043618C691219002373418C6B250CA4B2F2
:1005F0007D437C43121973412C042D0C12196B415D
:100600008261C469E418C461F0BD00BF2DE9F75FE1
:10061000136854689568D66817690A6888EA0808F4
:10062000A8FB089A8BEA0B0BA2FB03CEE2FB04E8C3
:10063000E2FB0589E2FB069AC0F800C08CEA0C0CCC
:10064000E2FB07AB4A68E2FB03ECE2FB648CE2FBF3
:10065000659CE2FB66ACC0F804E08EEA0E0EE2FB9D
:1006600067BC8A68E2FB038EE2FB649EE2FB65AE38
:10067000E2FB66BEC0F8088088EA0808E2FB67CEA5
:10068000CA68E2FB0398E2FB648AE2FB65ABE2FB2B
:1006900066BCC0F80C9089EA0909E2FB67CE0A69DA
:1006A000E2FB0389E2FB649AE2FB65ABE2FB66BC1A
:1006B000C0F8108088EA0808E2FB67CE4A69E2FBCE
:1006C0000398E2FB648A029A536994690D6886EA8A
:1006D0000606E5FB0396E5FB6468C0F8149087EA1C
:1006E0000707D2F81C90E5FB698A4D68E5FB0367B4
:1006F000E5FB6478E5FB698A8D68E5FB637BE5FBD8
:10070000648BE5FB69ABCD68E5FB638CE5FB64AC12
:10071000E5FB69BC0D69E5FB63AEE5FB64BEE5FB8B
:1007200069CE8D691368546889EA0909E5FB036994
:10073000E5FB647986619668E5FB66894D6982EA26
:100740000202E5FB0672CD6981EA0101E5FB037156
:10075000C761E5FB6412E5FB6629019B5C699E6944
:10076000029BDF68E4FB67180162E6FB6728E5FB94
:1007700067891969E4FB612AE6FB618AE5FB619AF6
:100780005969E4FB618BE6FB619BE5FB61AB996911
:10079000E4FB619CE6FB61ACE5FB61BCD969E4FB71
:1007A00061AEE6FB61BEE5FB61CE4262C0F8288027
:1007B000C0F82C90C0F830A0C0F834B0C0F838C0F1
:1007C000C0F83CE003B0BDE8F09F00BF2DE9F75F43
:1007D00088B0106853689468D56816690F68A7FBDD
:1007E0000389A7FB00ABCDF800A08AEA0A0AAAFB9E
:1007F0000ACEE7FB049AE7FB05ACE7FB06CE4F68A1
:10080000E7FB608BE7FB639BE7FB64ABE7FB65BC47
:10081000CDF8048088EA0808E7FB66CE8F68E7FB1E
:100820000098E7FB638AE7FB64ABE7FB65BCCDF8A8
:10083000089089EA0909E7FB66CECF68E7FB0089E3
:10084000E7FB639AE7FB64ABE7FB65BCCDF80C8084
:1008500088EA0808E7FB66CE0F69E7FB0098E7FB2C
:10086000638AE7FB64ABE7FB65BCCDF8109089EACF
:100870000909E7FB66CE4A69E2FB0089E2FB639A5D
:10088000E2FB64AB8A6987EA0707E2FB0097E2FBB9
:10089000637AE2FB64ABCA69E2FB63ACE2FB64BC73
:1008A0000A98436984690D6886EA0606E5FB0386B3
:1008B000E5FB6469CDF81480D0F81C80E5FB68790D
:1008C0004D6882EA0202E5FB03620696E5FB6427B7
:1008D000E5FB68798D6886EA0606E5FB0326E5FBFD
:1008E0006467E5FB6879CD68E5FB636AE5FB647ADC
:1008F000E5FB689A0D69E5FB637BE5FB649BE5FB23
:1009000068ABCD69036884EA0404E5FB032407921D
:100910008A694B69C168E3FB6146E2FB6167E5FBFD
:1009200061790169E3FB616EE2FB617CE5FB619A41
:100930004169E3FB617EE2FB619CE5FB61AB8169A0
:10094000E3FB619EE2FB61ACE5FB61BCE3FB68AEEF
:10095000E2FB68BEE5FB68CE07980099019A4FF06C
:10096000260385EA0505EEFB03054FF013084FEA61
:10097000D07E0EFB08F84FEA40004FEA5000E4FB3F
:10098000631884EA0404E5FB03142244E6FB6328AD
:10099000029C039D049EDDF814E0E7FB6348E9FB3D
:1009A0006358EAFB6368EBFB638E069FDDF82090DB
:1009B000ECFB637E7044C9F81C00C9F81870C9F8D4
:1009C0001480C9F81060C9F80C50C9F80840C9F87B
:1009D0000420C9F800100BB0BDE8F09F014B186867
:1009E000704700BF0001002070B50D4E0D4D761B05
:1009F000B61006D00024013455F8043B9847A642AF
:100A0000F9D1094E094D761B06F01AFDB61006D035
:100A10000024013455F8043B9847A642F9D170BD33
:100A2000B4760008B4760008B8760008B4760008FA
:100A3000F0B4860746D0541E002A3CD0CAB2034602
:100A400002E014F1FF3436D303F8012B9D07F8D1EF
:100A5000032C29D9CDB245EA05250F2C45EA0545D9
:100A600033D9A4F11006360903F1200707EB061766
:100A700003F1100242E9045542E902551032BA422C
:100A8000F8D1721C14F00C0F03EB021204F00F06E5
:100A900013D0331F23F003030433134442F8045BE1
:100AA0009342FBD106F003042CB1C9B21C4403F8F5
:100AB000011B9C42FBD1F0BC704734461346002C0E
:100AC000F3D1F8E714460346C2E71A462646E0E7A4
:100AD00038B5124B1C68A26B05461AB10023C2E957
:100AE000045338BD182000F021F90246A06378B104
:100AF000012000210A4B1360C2E904010B230948BD
:100B0000094993810023C2E90101C2E9045338BDB8
:100B1000064B0748422100F0AFF800BF000100205B
:100B20000E33CDAB34126DE6ECDE0500EC7500083B
:100B30000476000838B51A4B1C68A26B92B1146990
:100B400018495369184801FB04F100FB0313A4FB87
:100B50000045611C1D4445F1000323F00040C2E93B
:100B6000041338BD182000F0E1F80246A06388B1F4
:100B700001200021C2E904010A480C4C0C4B0D492C
:100B80000D4D146053600B24034695609481C2E9B7
:100B9000041338BD094B0A484E2100F06DF800BF20
:100BA000000100202DF451582D7F954C0E33CDAB14
:100BB00034126DE62E7F954CECDE0500EC750008D6
:100BC000047600080CB470B59CB020AC0B4E54F801
:100BD000042B0291234606916FF0004502A901946F
:100BE0000795CDE9045600F047FA029B00221A70DF
:100BF0001CB0BDE8704002B0704700BF0802FFFFA4
:100C00000EB430B59CB01FAB0C4C0D4D53F8042BFB
:100C10000193014602910691206802A96FF00044F9
:100C20000794CDE9044500F027FA029B00221A70D0
:100C30001CB0BDE8304003B0704700BF0001002089
:100C40000802FFFF10B50B4B84B004460022186861
:100C5000694600F057F8002806DBDDE900010CB119
:100C6000C4E9000104B010BD4FF0FF304FF0FF3178
:100C7000F5E700BF0001002000B50A4C26680546D4
:100C800085B01C46F06852B1074B0091CDE90132A6
:100C900006492B46224600F021F800F0ABFF044B3A
:100CA0001A46F2E70001002038760008487600086E
:100CB0004476000808B513460022FFF7DDFF00BFA9
:100CC0000CB400B583B004AB53F8042B019300F0CF
:100CD0004FFB03B05DF804EB02B070470EB410B5E3
:100CE00083B005AB064C53F8042B019301462068F2
:100CF00000F03EFB03B0BDE8104003B0704700BFFA
:100D00000001002038B50B46074C05461146184631
:100D10000023236001F0C0FE431C00D038BD2368CF
:100D2000002BFBD02B6038BD08030020024B01468E
:100D3000186800F061B800BF00010020024B0146B6
:100D4000186800F003B800BF0001002000293CD063
:100D500038B551F8043C0C1F002BB8BFE418054609
:100D600001F0D0FC234B1A682AB1A2420DD92168A8
:100D70006018824223D0626028461C60BDE838407B
:100D800001F0C2BCA34203D81A465368002BF9D124
:100D900011685018A04219D024D8216860188342E5
:100DA00006D0636054602846BDE8384001F0ACBC12
:100DB000D3E900030144636021605460F3E7D2E9A2
:100DC0000002014462602160D6E770472068014458
:100DD000501883421160E6D1D3E900030144536007
:100DE0001160E0E70C232B602846BDE8384001F095
:100DF0008BBC00BF90020020F8B5CD1C25F0030588
:100E000008350C2D38BF0C25002D064633DBA942D2
:100E100031D82A4F01F076FC3A6852B113685B1B57
:100E200004D43FE023685B1B29D522465468002C7C
:100E3000F8D1796800293BD02946304600F0E8FD1A
:100E4000431C28D0C41C24F00304A04205D0211A5E
:100E5000304600F0DDFD01301DD02560304601F048
:100E600053FC04F10B0020F00700231DC21A01D02F
:100E70001B1AA350F8BD0C2232600020F8BD0B2BCA
:100E800005D8A242636811D05360E7E71446236097
:100E90001C442560E2E70C233046336001F034FC4B
:100EA0000020F8BD0B2BF1D8536814463B60D5E702
:100EB000304600F0ADFD7860BEE700BF9002002034
:100EC0002DE9F0478E681D46AE420C460B6817466A
:100ED00036D88046888910F4906F0ED13546184672
:100EE0002A46394601F0A6FBA2682368961B2B44CC
:100EF000A66023600020BDE8F087D1E9041606EB68
:100F00004606A3EB010906EBD6766B1C76104B4424
:100F1000B342324684BF1E463246430512D51146BF
:100F20004046FFF769FF824600B34A46216901F057
:100F3000E7FAA38923F4906343F08003A38106E0DA
:100F40002E46CCE7404601F0E1FB824650B1A6EBCD
:100F500009020AEB09036661C4F810A02360A260CD
:100F60002E46BCE721694046FFF7F0FE0C23C8F887
:100F70000030A38943F04003A3814FF0FF30BAE76C
:100F80002DE9F04F936883B09046002B6DD0176821
:100F90008D6882460C460868083743E0A38913F43D
:100FA000906F2ED0D4E9041505EB4505A0EB010B9D
:100FB00005EBD5750BEB06006D100130A8422A46F3
:100FC00084BF05462A465B0536D511465046FFF7D5
:100FD00013FF00283AD05A462169019001F090FA97
:100FE000A289019B22F4906242F08002A281A5EBCB
:100FF0000B0203EB0B00656123612060A2603546A4
:10100000B3465A46494601F015FBD8F80830A268A5
:101010002068551B58449E1BA5602060C8F80860D6
:101020001EB3083757E90296AB46002EF9D0AE4200
:10103000B4D23546B346E4E7504601F067FB0346B9
:101040000028D4D121695046FFF780FE0C23CAF84E
:101050000030A389002243F040034FF0FF30A3810A
:10106000C8E9012203B0BDE8F08F0020C8F80400F1
:1010700003B0BDE8F08F00BF2DE9F04F90468A899C
:101080009FB014068B46029003D50A69002A00F02F
:101090000B81059330238DF8323098F800308E4E56
:1010A000002120220B918DF831200127002B00F028
:1010B0008480252B00F0F680454603E0252B00F0C8
:1010C000868025466B786C1C002BF7D1B4EB080AA0
:1010D00073D04246534659460298FFF7F1FE01305D
:1010E0006BD00B9B6A7853440B93002A65D0002386
:1010F0004FF0FF3201340693CDE908338DF85B30B1
:101100001C93079205E0069A07FA03F313432C4653
:1011100006932546052215F8011B304601F0A0F97B
:10112000AA46831B0028EED1069BD90644BF202285
:101130008DF85B2021781A0744BF2B228DF85B20A5
:101140002A2948D1059A11680432002905927EDBCC
:1011500009916178A51C2E2956D0604C03222046A7
:1011600001F07EF9002868D0001B069B402404FA99
:1011700000F00343069305F10108297858488DF8DB
:101180003010062201F06CF9002866D0554B002B78
:1011900056D005AB00935A46534B029806A9AFF3BD
:1011A00000808146B9F1FF3F07D00B9B4B440B9366
:1011B00098F80030002B7FF47CAFBBF80C305B0656
:1011C00054BF0B984FF0FF301FB0BDE8F08FB4EB69
:1011D000080A8CD07DE7A1F13002092A88BFA24617
:1011E000B9D8099B01E02C460135297803EB83032C
:1011F00002EB4303A1F13002092AAA46F3D92E29B2
:1012000004F102050993A8D19AF801102A292ED1D8
:10121000059B9AF802101A6807920433002A059376
:101220000AF103050AF1020337DB2C4C03222046A6
:101230009A4601F015F9002896D1A84655469CE734
:10124000059B073323F0070308330593ADE74942B5
:1012500043F00203099106937BE705AB00935A46DE
:10126000214B029806A900F087FA81469AE7A1F17E
:1012700030020023092A079301D923E055466978F3
:1012800003EB830302EB4303A1F13002092A05F1CA
:10129000010AF3D9023507935FE74FF0FF329A4610
:1012A00007925AE7444622E740210393FFF7A4FD43
:1012B000039BCBF80000CBF8100030B14022CBF8F4
:1012C0001420E6E6AA46013547E7029A0C2313608C
:1012D0004FF0FF3078E700BF78760008807600088E
:1012E0008476000800000000C10E00089368013BEE
:1012F000002B93600FDA10B49469A34208DB0A292B
:1013000006D01368581C10601970084610BC70474E
:1013100010BC00F08FBB1368581C10601970084691
:10132000704700BF9BB1F8B513440F4606465D1EDB
:10133000541E01E0AC4208D03A4614F8011F304672
:10134000FFF7D4FF431CF5D1F8BD0020F8BD002005
:10135000704700BF936810B5144613B95360184620
:1013600010BD00F02FFE0023C4E9013310BD00BF03
:101370002DE9F04F9FB08B4690461C46039018B164
:101380008369002B00F0B780A24B9B4500F0B98029
:10139000A14B9B4500F0C780A04B9B4504BF039B1E
:1013A000D3F80CB0BBF80C30180740F1B280DBF872
:1013B0001030002B00F0AD8030238DF8323098F8DB
:1013C00000300594002120220B918DF83120944E9D
:1013D0000127002B00F08780252B00F01581454662
:1013E00003E0252B00F0A38025466B786C1C002BB6
:1013F000F7D1B4EB080A76D04246534659460398D3
:10140000FFF790FF01306ED00B9B6A7853440B932B
:10141000002A68D000234FF0FF3201340693CDE953
:1014200008338DF85B301C93079205E0069A07FAA3
:1014300003F313432C4606932546052215F8011B9A
:10144000304601F00DF8AA46831B0028EED1069B1A
:10145000D90644BF20228DF85B2021781A0744BFAB
:101460002B228DF85B202A2966D1059A1168043257
:1014700000290592C0F29D8009916178A51C2E2952
:1014800073D0684C0322204600F0EAFF002800F0E9
:101490008680001B069B402404FA00F00343069359
:1014A00005F10108297860488DF83010062200F017
:1014B000D7FF002800F083805C4B002B72D005AB77
:1014C00000935A465A4B039806A9AFF30080814611
:1014D000B9F1FF3F07D00B9B4B440B9398F80030BA
:1014E000002B7FF479AFBBF80C305B0618D40B9857
:1014F0001FB0BDE8F08F00F045FD464B9B457FF4E3
:1015000047AF039BD3F804B0BBF80C3018073FF586
:101510004EAF5946039800F0EDFA00283FF44CAF67
:101520004FF0FF30E4E7039BD3F808B03AE7B4EBA1
:10153000080A3FF46FAF5FE7A1F13002092A88BFC4
:10154000A2469CD8099B01E02C460135297803EB83
:10155000830302EB4303A1F13002092AAA46F3D91F
:101560002E2904F1020509938BD19AF801102A293A
:101570002FD1059B9AF802101A6807920433002AAB
:1015800005930AF103050AF1020338DB254C032217
:1015900020469A4600F064FF00287FF47AAFA84600
:1015A00055467FE7059B073323F007030833059370
:1015B00091E7494243F00203099106935DE705ABC9
:1015C00000935A461A4B039806A900F0D5F88146B5
:1015D0007EE7A1F130020023092A079301D915E023
:1015E0005546697803EB830302EB4303A1F1300214
:1015F000092A05F1010AF3D90235079341E74FF0B3
:10160000FF329A4607923CE7444603E7AA46013573
:1016100037E700BF80750008607500084075000856
:1016200078760008807600088476000800000000C4
:101630002513000810B4044C13460A4601462068DE
:1016400010BCFFF795BE00BF000100202DE9F04758
:101650000C4691460A698968DDF820808A42B8BF45
:101660000A46C9F8002094F8431006461F4611B1F7
:101670000132C9F80020236899065CD5D9F800200A
:101680000232C9F80020236813F0060F19461DD155
:10169000E1688A1A002AD8BF194617DD04F1190A31
:1016A000002505E0E368D9F800209B1AAB420CDD69
:1016B0000123524639463046C047013005F1010545
:1016C000F0D14FF0FF30BDE8F087216894F8433047
:1016D000003318BF01238A060AD5E1185A1C3020AE
:1016E00081F84300224494F8451082F843100233F5
:1016F00004F1430239463046C0470130E1D0236847
:10170000A268216903F00603042B1DD08A4226DD5E
:101710004FF00009521A91441A34002501E04D455A
:101720001DDA0123224639463046C047013005F113
:101730000105F4D1C5E713F0060F13D094F8433038
:10174000003318BF0123D3E7D9F80000E3688A42C9
:10175000A3EB000323EAE379DCDC002BDCDC0020D4
:10176000BDE8F087E168D9F800208A1A002AD8BFBE
:10177000194693DCAAE700BF2DE9F0430C46097E29
:1017800085B06E29064617460C98984604F1430E1C
:101790006DD039D9732900F0F68044D9752900F04D
:1017A0000481782940F0118178232268DFF858C23B
:1017B00084F845300168150651F8043B016040F19A
:1017C000A180D10744BF42F020022260002B00F02C
:1017D00093801022002184F843106068A0600028E4
:1017E000C0F2C880216821F004012160002B40F084
:1017F000A380002840F0C0807546082A00F0AC8025
:10180000AEEB0503236141E0632900F0E5801AD8BF
:10181000002938D0582940F0D88084F84510226833
:10182000DFF8E8C1C6E76F2900F0BF80702940F0FB
:10183000CC802268DFF8D0C142F0200278232260F9
:1018400084F84530B6E7642902D0692940F0BD80AC
:1018500022680368110603F1040557D5196805606D
:101860000B46002959DBDFF8A4C10A22B5E703685B
:10187000226861691D1D056015061B6802D45006AB
:1018800000F1BD801960002375462361CDF800800A
:101890003B4603AA21463046FFF7D8FE013020D050
:1018A0002A46236939463046C047013019D022689C
:1018B0000398E368920719D51A1A002A16DD04F175
:1018C0001909002504E0E36803981A1AAA420DDDFD
:1018D00001234A4639463046C047013005F101052B
:1018E000F1D14FF0FF3005B0BDE8F0839842B8BFAA
:1018F000184605B0BDE8F083226822F0200222607D
:10190000102267E7500648BF9BB25AE75106A5D59B
:10191000B3F9003005601946A3E76168A1602D2086
:101920000029C3F1000384F8430002DB22F0040223
:101930002260DFF8D8C00A22754600E00B46B3FBF0
:10194000F2F102FB113093421CF8000005F8010D82
:10195000F4D2082A7FF454AF2368DB077FF550AF39
:10196000626823699A423FF74BAF302305F8013C88
:10197000013D45E7002BDFD19CF8003084F8423070
:1019800004F1420539E703686268191D01601D68AA
:101990000021284600F064FD002832D0401B606022
:1019A0002061002384F8433070E72268036812F056
:1019B000800F03F104051AD01B6805606F290CBF66
:1019C00008220A22DFF844C004E7012384F8421009
:1019D000236104F14205E4E703681A68191D012335
:1019E000016004F1420584F842202361D9E712F036
:1019F000400F0DBF1B6805601B880560DEE719807E
:101A000041E76068CCE700BFA07600088C7600084C
:101A100038B5074C002305460846236005F0CCFC8A
:101A2000431C00D038BD2368002BFBD02B6038BD91
:101A300008030020F8B50D461446064608B1836930
:101A400043B3254B9C422AD0244B9C4229D0244BA3
:101A50009C4208BFF468A389A269A2601A0722D534
:101A6000236903B322686169D31AEDB299422F4604
:101A700029DD0133A168501C0139A1602060157077
:101A800062699A4216D0A389DB0701D50A2D11D0CD
:101A90003846F8BD00F076FA0F4B9C42D4D17468FA
:101AA000D9E7B468D7E72146304600F023F838B9C3
:101AB0002369D7E72146304600F03AF90028E7D0FD
:101AC0004FF0FF37E4E72146304600F031F90028B7
:101AD000F6D122680123CDE7807500086075000803
:101AE00040750008024B0A4601461868FFF7A2BF7E
:101AF000000100203B4B70B51D6806460C460DB139
:101B0000AB69DBB1384B9C421ED0384B9C424AD06B
:101B1000374B9C4208BFEC68B4F90C2093B219070C
:101B200018D5206908B313F001022CD06369002294
:101B30005B42A361A26060B3002070BD284600F044
:101B400021FA294B9C42E0D16C68B4F90C2093B285
:101B50001907E6D4DD063CD5580726D4206942F0A3
:101B60000803A3819BB20028DDD103F42072B2F5F3
:101B7000007FD8D03046214600F026FCA38920699A
:101B800013F00102D2D1990758BF6269A260002800
:101B9000D2D1B4F90C301A06CFD543F04003A3815B
:101BA0004FF0FF3070BDAC68B6E7616B51B104F126
:101BB0004403994204D03046FFF7C8F8B4F90C202A
:101BC0000023636300232069636022F02402206005
:101BD000C5E742F04002092333604FF0FF30A28195
:101BE00070BD00BF0001002080750008607500080E
:101BF0004075000808B5062000F034FE012000F012
:101C00007BFF00BF8B891A072DE9F0410C46804607
:101C100041D44A68002A59DDE66A002E53D00022DA
:101C2000D8F80050216AC8F8002013F4805251D12E
:101C300001234046B047431C5FD0A389E66A216A6E
:101C40005F0705D56268636B801A0BB1236CC01AFD
:101C5000024600234046B047461C45D1D8F8003024
:101C6000B4F90C20002B55D01D2B01D0162B5AD1C6
:101C700023690022C4E90032616BC8F8005011B337
:101C800004F14403994202D04046FFF75FF8002078
:101C90006063BDE8F0810E69AEB10D680E60990712
:101CA0000CBF63690023AD1BA3600AE02B463246DC
:101CB000A76A216A4046B8470028A5EB00050644FC
:101CC0000ADD002DF2DC0020BDE8F0810A6C002A5C
:101CD000A2DCF8E7606DB3E7A38943F04003A3817A
:101CE0004FF0FF30BDE8F0812269A3892260002215
:101CF0006260DA04C0D56065BEE7D8F80030002B1A
:101D00009BD01D2B0CD0162B0AD0A38943F0400387
:101D1000A381D9E72169C4E90013D304ACD5EAE76C
:101D2000C8F80050CFE742F04002A281CCE700BFE4
:101D30000B6923B310B5044682B008B18369BBB107
:101D4000104B994212D0104B994216D00F4B99422A
:101D500008BFE168B1F90C302BB1204602B0BDE8F4
:101D60001040FFF74FBF002002B010BD6168F1E7DF
:101D7000019100F007F90199E2E7A168EAE7002084
:101D8000704700BF80750008607500084075000846
:101D900020B1054B01461868FFF7CABF034B044941
:101DA000186800F0B9BA00BF000100203C750008B7
:101DB000311D000800207047014900F0ADBA00BF96
:101DC000311D00080020704770B54A1E682505FBCC
:101DD00002F50E4605F17401FFF70EF8044640B116
:101DE00000210C30666005F168022160A060FEF7FA
:101DF0001FFE204670BD00BF1E4B70B51D68AB694D
:101E0000064643B34835D5E90134013B05D51EE00C
:101E1000013B5A1C04F1680419D0B4F90C20002AC3
:101E2000F6D10025144B6566C4E90055A560C4E9E8
:101E30000455A5612946E360082204F15C00FEF721
:101E4000F7FDC4E90D55C4E91255204670BD2C6854
:101E50002CB12546D7E7284600F010F8D2E7042138
:101E60003046FFF7B1FF044628600028F1D10C236B
:101E70003360EAE73C7500080100FFFF2DE9F84FE9
:101E8000334B34491A68816290424FF00003C0E935
:101E90001233036504BF012383610546FFF7ACFFDE
:101EA00068602846FFF7A8FFA8602846FFF7A4FF50
:101EB0006E68E86000240423F3607466C6E9004499
:101EC000B460C6E90444B461214606F15C0008220E
:101ED000FEF7AEFDDFF888B0AF68DFF888A0DFF866
:101EE0008890DFF888801C4BC6F83080C6E9086B04
:101EF000C6E90AA92146FB6008227C66C7E90044BE
:101F0000BC60C7E90444BC6107F15C00FEF790FDCA
:101F1000EE68124BC7F83080C7E9087BC7E90AA909
:101F20002146F3607466C6E90044B460C6E904441F
:101F3000B46106F15C000822FEF77AFD0123C6E9D0
:101F4000086BC6E90AA9C6F83080AB61BDE8F88F16
:101F50003C750008B91D00080900010012000200CC
:101F6000D5280008FD2800083D2900085D29000843
:101F7000024B0349186800F0CFB900BF3C75000858
:101F8000311D0008836903B978E77047704700BFC7
:101F9000704700BF704700BF704700BF024B034946
:101FA000186800F093B900BF00010020B51D0008BB
:101FB000024B0349186800F089B900BF00010020F6
:101FC000C51D00089368002B00F002812DE9F04F39
:101FD000B1F90C309BB20C46190783B0824690468B
:101FE00035D522699AB313F00202D8F800603DD0CB
:101FF0000027D4F828B0D4F820C0DFF8CC923D46B2
:102000004D452B463A4628BF4B4661465046D5B112
:10201000D847002840F3D280D8F808301B1A07446C
:102020002D1AC8F80830002B00F0B780D4F820C073
:10203000D4F828B04D452B463A4628BF4B4661465A
:102040005046002DE4D1D6E900750836D8E7214680
:102050005046FFF74FFD002840F03081B4F90C30B6
:10206000D8F800609BB213F00202C1D113F001094D
:1020700040F0B080A76820684D46002D54D09A05E6
:1020800040F1BC80AF42BB4600F2E78013F4906F92
:102090002FD0D4E9041707EB4707A0EB010B07EBA0
:1020A000D777681C7F105844B8423A4684BF074629
:1020B0003A465B0540F1E98011465046FEF79CFE2A
:1020C000002800F0F5805A462169019000F018FAC6
:1020D000A289019B22F4906242F08002A281A7EBC8
:1020E0000B0203EB0B00676123612060A2602F46A7
:1020F000AB465A46494600F09DFAA2682368D21BB7
:102100005B442F46A26023600025D8F80830DB1B13
:10211000B944C8F80830002B3FD0B4F90C30A76898
:1021200020689BB2002DAAD1D6E900950836A4E715
:102130000BF1080353E902679B460833002FF9D0DF
:102140003A460A21304600F08BF9002853D001307E
:10215000A0EB06094B46D4E904122068BB4228BF15
:102160003B46884203D9A5681544AB4219DC9A4224
:102170007DDC1346A56A216A32465046A847051EF3
:102180001CDDB9EB05096BD00120D8F808305B1BCA
:102190002E447F1BC8F8083013BB002003B0BDE8F5
:1021A000F08F31462A4600F045FA23682B4423601D
:1021B00021465046FFF7BCFD0028E2D0B4F90C30B0
:1021C00043F040034FF0FF30A38103B0BDE8F08F30
:1021D0000020704733469146104617464E469B46B0
:1021E000002FA5D00028B5D13A460A21304600F08C
:1021F00037F90028ABD17B1C9946ACE723698342B1
:1022000015D36169A94212D82E4BA76A9D4294BF8B
:102210002B466FF000434A4693FBF1F3504601FB17
:1022200003F3216AB847071EC8DDED1B6DE7AF4217
:1022300028BF2F463A46494600F0FCF9A3682268B9
:10224000DB1B3A44A3602260002BEED121465046AE
:10225000FFF76EFD0028E8D0B0E72F46AB4648E711
:1022600021465046FFF764FD00288ED0A6E71A46A7
:102270003146019300F0DEF9019BA1682268C91A7A
:102280001A44A16022601D467BE7504600F03EFAEA
:10229000034600287FF423AF21695046FEF756FD20
:1022A000B4F90C300C2223F08003CAF8002087E731
:1022B0000C23CAF80030B4F90C3081E74FF0FF303E
:1022C0006CE700BFFEFFFF7F00FCFF7F2DE9F041C0
:1022D00010F148071BD088460026D7E90154013D7C
:1022E0000FD4A389012B05F1FF3506D9B4F90E30BF
:1022F0000133204601D0C04706436B1C04F168043B
:10230000EFD13F68002FE8D13046BDE8F0813E466E
:102310003046BDE8F08100BF2DE9F84310F14807D1
:102320001FD0884606464FF00009D7E90154013D09
:1023300011D4A389012B05F1FF3508D9B4F90E306A
:1023400001332146304602D0C04749EA00096B1CE0
:1023500004F16804EDD13F68002FE6D14846BDE89E
:10236000F883B9464846BDE8F88300BF70B50C460F
:10237000B1F90E10002996B016461D4613DB6A46C9
:1023800000F018FB00280EDB019A02F47042A2F55F
:102390000052B2FA82F252094FF4806300202A60A0
:1023A000336016B070BDA38900221B062A6004D5D5
:1023B00040230020336016B070BD4FF480630020CE
:1023C000336016B070BD00BF8A8992070B4606D5F0
:1023D00001F1470201211A60C3E90421704770B579
:1023E00082B001AB6A460C460646FFF7BFFF009974
:1023F00005463046FEF700FDB4F90C3070B11649C1
:10240000B162019A0099206043F08003A381C4E97E
:1024100004018AB92B43A38102B070BD9A05FBD495
:1024200023F0030304F1470243F002030121A381D7
:102430002260C4E90421EFE73046B4F90E1000F041
:10244000CDFA10B9B4F90C30E4E7A38923F0030303
:1024500043F001031BB2DDE7B91D000800000000D6
:1024600001F0FF01102A2BDB10F0070F08D010F845
:10247000013B013A8B422DD010F0070F42B3F6D149
:10248000F0B441EA012141EA014122F007047FF062
:1024900000070023F0E80256083C85EA010586EAB9
:1024A000010685FA47F5A3FA87F586FA47F6A5FAF5
:1024B00087F68EB9EED1F0BC01F0FF0102F0070201
:1024C00032B110F8013B013A83EA010313B1F8D1AC
:1024D0000020704701387047002D06BF354603388D
:1024E000073815F0010F07D1013015F4807F02BFC6
:1024F000013015F4C03F0130F0BC0138704700BF17
:10250000844641EA000313F003036DD1403A41D3FE
:1025100051F8043B40F8043B51F8043B40F8043BBD
:1025200051F8043B40F8043B51F8043B40F8043BAD
:1025300051F8043B40F8043B51F8043B40F8043B9D
:1025400051F8043B40F8043B51F8043B40F8043B8D
:1025500051F8043B40F8043B51F8043B40F8043B7D
:1025600051F8043B40F8043B51F8043B40F8043B6D
:1025700051F8043B40F8043B51F8043B40F8043B5D
:1025800051F8043B40F8043B51F8043B40F8043B4D
:10259000403ABDD2303211D351F8043B40F8043BED
:1025A00051F8043B40F8043B51F8043B40F8043B2D
:1025B00051F8043B40F8043B103AEDD20C3205D3FD
:1025C00051F8043B40F8043B043AF9D2043208D0F5
:1025D000D2071CBF11F8013B00F8013B01D30B8867
:1025E00003806046704700BF082A13D38B078DD045
:1025F00010F003038AD0C3F10403D21ADB071CBF17
:1026000011F8013B00F8013B80D331F8023B20F880
:10261000023B7BE7043AD9D3013A11F8013B00F8B9
:10262000013BF9D20B7803704B7843708B78837041
:10263000604670478842F0B40DD98B1883420AD99E
:10264000841832B1224613F8014D02F8014D994227
:10265000F9D1F0BC70470F2A0ED80346541E002A49
:10266000F7D001340C44013B11F8012B03F8012F82
:10267000A142F9D1F0BC704740EA01039B073BD16E
:10268000A2F110073F0901F1200606EB071601F140
:10269000100300F1100453F8105C44F8105C53F878
:1026A0000C5C44F80C5C53F8085C44F8085C53F884
:1026B000045C44F8045C1033B34204F11004EAD122
:1026C0007B1C1B0112F00C0F194402F00F05034490
:1026D00015D0043DAD0803EB850C1C1F0E4656F8C3
:1026E000047B44F8047F6445F9D10135AD002B44E7
:1026F000294402F00302B1E7541E0346B1E72A461B
:10270000ACE700BF704700BF704700BF09B3F8B522
:102710001446CAB106460D4600F088F9A04202D31D
:102720002F463846F8BD21463046FEF765FB074682
:102730000028F6D022462946FFF7E2FE3046294619
:10274000FEF704FB3846F8BD2746FEF7FFFA384689
:10275000F8BD1146FEF750BB10B580210446FEF7C8
:102760004BFB606440B1031F00227C3043F8042F10
:102770008342FBD1002010BD4FF0FF3010BD00BFE1
:10278000436C0BB100207047E6E700BF1F2970B50E
:10279000054608D8436C16460C464BB153F8240046
:1027A00043F8246070BD162202604FF0FF3070BD08
:1027B000FFF7D2FF08B96B6CF0E74FF0FF3070BD48
:1027C0001F2938B521D8426C05460C466AB152F82B
:1027D000213053B1012B16D0591C10D000252046B2
:1027E00042F824509847284638BD284600F070F833
:1027F000224601462846BDE8384000F055B8162369
:102800000360012038BD002038BD162303604FF05F
:10281000FF3038BD1F2921D838B5436C05460C461A
:1028200083B153F8242003EB84034AB1511C10D028
:10283000012A0CD0002520461D609047284638BD4F
:10284000012038BDFFF788FF28B96B6CE9E703204A
:1028500038BD022038BD4FF0FF3038BD4FF0FF309B
:10286000704700BF024B01461868FFF7A9BF00BFC1
:1028700000010020024B0A4601461868FFF786BF98
:1028800000010020034B1868436C0BB10020704717
:1028900062E700BF00010020024B01461868FFF705
:1028A000B9BF00BF0001002038B50B46074C0546F4
:1028B000114618460023236000F0FEF8431C00D0A8
:1028C00038BD2368002BFBD02B6038BD08030020E7
:1028D00000F0DAB810B50C46B1F90E1000F0AEF801
:1028E000002803DB636D0344636510BDA38923F4F3
:1028F0008053A38110BD00BF002070472DE9F04137
:102900001646B1F90C201F46D3050C460546B1F911
:102910000E1009D422F48052A2813B46324628464A
:10292000BDE8F04100F01EB80022022300F068F874
:10293000B4F90C20B4F90E10ECE700BF10B50C464A
:10294000B1F90E1000F05CF8A389421C0EBF23F40D
:10295000805343F480536065A38110BDB1F90E101C
:1029600000F016B870B50D46084C114606461A46DA
:1029700028460023236000F0B7F8431C00D070BD48
:102980002368002BFBD0336070BD00BF080300201C
:1029900038B5074C002305460846236000F064F86C
:1029A000431C00D038BD2368002BFBD02B6038BD02
:1029B0000803002038B50B46074C0546114618465B
:1029C0000023236000F058F8431C00D038BD236872
:1029D000002BFBD02B6038BD0803002038B5074C16
:1029E000002305460846236000F05EF8431C00D033
:1029F00038BD2368002BFBD02B6038BD08030020B6
:102A000070B50D46084C114606461A462846002366
:102A1000236000F059F8431C00D070BD2368002BE0
:102A2000FBD0336070BD00BF0803002051F8043CA8
:102A3000181F002BBCBF0B58C018704770B50D464F
:102A4000084C114606461A4628460023236000F02B
:102A500043F8431C00D070BD2368002BFBD03360CB
:102A600070BD00BF08030020024B58221A604FF0CF
:102A7000FF30704708030020024B58221A604FF0C5
:102A8000FF30704708030020024B58221A604FF0B5
:102A9000FF30704708030020024B58221A604FF0A5
:102AA000FF30704708030020024B58221A600020B4
:102AB000704700BF08030020024B58221A604FF0F5
:102AC000FF30704708030020024B58221A604FF075
:102AD000FF30704708030020024B58221A604FF065
:102AE000FF30704708030020024B58221A604FF055
:102AF000FF30704708030020FEE700BF10B59AB012
:102B000000F09CF8044600F05BF80649221801A882
:102B1000FEF776F801AA1021722003F099FA00203E
:102B20001AB010BDA075000810B59AB003F0F8FBFC
:102B300000F0B0F8044603F0FBFB2246054901A86B
:102B4000FEF75EF801AA1021722003F081FA00203E
:102B50001AB010BDB475000810B5044603F0E0FBD0
:102B600022461021722003F073FA03F0E1FB0020EB
:102B700010BD00BF08B503F033FB03F071FB03F099
:102B8000ABFB03F019FA0020FEF75CF8FDF7A0FF9D
:102B9000084A1021612003F043FA074A10216220FD
:102BA00003F03EFA054A1021652003F039FA03F0DC
:102BB000A9FAFCE7FD2A0008292B0008592B000878
:102BC00070B51D4D0FCD92B00AAC0FC495E80F0043
:102BD00084E80F00002302A8019303F059F9019B38
:102BE0000AAD034302AC01932E4623462846D32266
:102BF00003E0AB4209D010F8012F13F8011B9142FA
:102C0000F7D0019B43F00103019302A803F040F9C0
:102C1000019B03430193D32303E0B44209D015F889
:102C2000013F14F8012B9A42F7D0019B43F00203B5
:102C30000193019812B070BDC875000870B50024EA
:102C400098B0264602E001360A2E20D0202200232A
:102C5000684603F031F9694608A802F039FE694672
:102C6000054610A802F034FE002DECD10DF13F0214
:102C700015460DF11F0313F8010F12F8011F8842CA
:102C800018BF3443AB42F6D101360A2EDED12046BE
:102C900018B070BD30B5124D0FCD93B00AAC0FC453
:102CA00095E80F0084E80F00002302A8019303F0C9
:102CB000EFF8019B0AA91843019002AB0C46D322FE
:102CC00003E0A34209D011F8012F13F8010B904241
:102CD000F7D0019B43F001030193019813B030BD7D
:102CE000C875000810B44B1E01F11F04421E13F8F2
:102CF000011F02F8011FA342F9D1C37F10BC03F0EA
:102D00007F03C377704700BF0B1F04381C3153F893
:102D1000042F40F8042F8B42F9D170470023C0E9FB
:102D20000033C0E90233C0E90433C0E90633704719
:102D300000230122C0E90023C0E90233C0E90433C3
:102D4000C0E90633704700BFF0B5CC69644265EB5B
:102D50000505E20F42EA4502013A02EBC20302EB2B
:102D600043020E1F01F1180C44F0004ED317011F4F
:102D700056F8047FD41B63F10005664541F8044F03
:102D80002A464FEAE573F3D115EB0E02C261F0BD9E
:102D90002DE9F003C769FA0F013202EBC203011FEC
:102DA00002EB43020C46002300F1180654F8045FBE
:102DB00012EB050843F10009A6424A464FF0000312
:102DC000F4D119EB070243F10003D40F44EA4304A2
:102DD00004EBC40304EB4302BC46002351F8047F18
:102DE000D41943F100058E422A460C604FF00003CF
:102DF000F4D11CEB050222F00042BDE8F003C261F1
:102E0000704700BF38B50D4604460846FFF7C0FFBF
:102E1000621E6B1E05F11F0013F8011F02F8011F4F
:102E20008342F9D138BD00BF38B5C269CB699A4237
:102E30000C4605460DD1211F2B1F05F1180053F834
:102E4000044F51F8042F94420CD18342F7D1012052
:102E500038BDFFF79DFF2046FFF79AFFEA69E36957
:102E60009A42E8D0002038BD2DE9F0438C4E8946C7
:102E700005460FCEA9B018AC0FC496E80F00A9F113
:102E80000407ADF1040884E80F0009F11C063B4675
:102E9000424653F8041F42F8041F9E42F9D1002312
:102EA0000122CDE91023CDE91233CDE91433CDE968
:102EB000163307AA3B4653F8041F42F8041F9E42EC
:102EC000F9D169466846FDF7A7F908AA1046694690
:102ED000FDF77CFC69466846FDF79EF9FA246946D1
:102EE0006846FDF799F908AA69461046FDF76EFC99
:102EF000013CF4D110A908A8FFF796FF0446F8B1E9
:102F000057F8043F48F8043FB742F9D100230122A3
:102F1000C5E90023C5E90233C5E90433C5E9063331
:102F2000FB2469466846FDF777F96A462946284634
:102F3000FDF74CFC013CF4D1204629B0BDE8F083FC
:102F400018A908A8FFF770FF002800F0A58001224B
:102F500020AB1146CE46D9F81C60DEF81C000746AF
:102F6000E6FB6167E0FB01674FF0130007FB00F031
:102F7000D9F80070DEF800C0E1FB607C1F60D9F872
:102F80000400DEF80470E1FB607C5F60D9F80800A3
:102F9000DEF80870E1FB607C9F60D9F80C00DEF879
:102FA0000C70E1FB607CDF60D9F81000DEF8107077
:102FB000E1FB607C1F61D9F81400DEF81470E1FBBE
:102FC000607C5F61D9F81800DEF81870E1FB607C66
:102FD0009F610CEB560CC3F81CC020AB29469E46E3
:102FE000DE69DEF81C000746E6FB6267E0FB02676D
:102FF0004FF0130007FB00F01F68DEF800C0E2FB93
:10300000607C0F605868DEF80470E2FB607C4F6003
:103010009868DEF80870E2FB607C8F60D868DEF8A4
:103020000C70E2FB607CCF601869DEF81070E2FB88
:10303000607C0F615869DEF81470E2FB607C4F61C0
:103040009869DEF81870E2FB607C8F610CEB560C1F
:10305000C1F81CC02B1F05F11C0153F8042F48F8C0
:10306000042F9942F9D169466846FDF7D5F8FA264A
:1030700069466846FDF7D0F86A4629462846FDF7B6
:10308000A5FB013EF4D1284620AA2946FDF79EFB68
:10309000204629B0BDE8F0834FF0FF344CE700BF75
:1030A000587400082DE9F041069E14460746304644
:1030B00098460D46FDF7B0F831462046FDF7ACF8CE
:1030C00021462046FDF7A8F82A4621464046FDF74E
:1030D0007DFB324641463846FDF778FB39462046AF
:1030E000FDF79AF8424621464046FDF76FFB414600
:1030F0002046FDF791F821462046FDF78DF8214640
:103100002046FDF789F821462046FDF785F821463F
:103110002046FDF781F8424621464046FDF756FB22
:1031200041462046FDF778F8092521462046FDF75F
:1031300073F86B1E13F0FF05F7D142462146304667
:10314000FDF744FB31462046FDF766F8132521467E
:103150002046FDF761F86B1E13F0FF05F7D13246EC
:1031600021462046FDF732FB21462046FDF754F864
:10317000092521462046FDF74FF86B1E13F0FF0589
:10318000F7D1424621463046FDF720FB3146204626
:10319000FDF742F8312521462046FDF73DF86A1E2D
:1031A00012F0FF05F7D1324621464046FDF70EFBEF
:1031B00041462046FDF730F8632521462046FDF7BD
:1031C0002BF86A1E12F0FF05F7D142462146204631
:1031D000FDF7FCFA322521462046FDF71DF86B1E4F
:1031E00013F0FF05F7D1324621462046FDF7EEFAEF
:1031F000052521462046FDF70FF86B1E13F0FF054D
:10320000F7D121463A463846BDE8F041FDF7DEBA2F
:103210002DE9F843894680460146114D484600F0A5
:10322000ADFAA9F1040409F11C0C0022002354F8A2
:10323000040F55F8041F121843F10003561A63F1E6
:103240000007A4453A4626604FEAE773EFD1FA43F8
:103250004946404602F00102BDE8F84300F098BA42
:1032600074740008F0B5A5B000F11C0216490746B9
:10327000684600F0ABF909A9144A12A800F0A6F9B3
:103280003E1F12A90DF1880E0024002556F804CF28
:1032900051F8040B14EB0C0245F10003121A63F110
:1032A00000038E451C4632604FEAE375EED107F10C
:1032B000200421463846FFF7ABFF21463846FFF78A
:1032C000A7FF25B0F0BD00BFA07400087874000807
:1032D00010B590B004466846FDF798F96846FFF7C8
:1032E000C1FF6946204600F049FA10B010BD00BF8A
:1032F000F0B589B00C460146684600F03FFA251F3C
:1033000004F11C0C0020ADF10404002154F8047FEA
:1033100055F8046FC21941F10003921B63F10003D9
:103320006545184622604FEAE371EFD10798C00F58
:1033300009B0F0BD2DE9F047C0B01446064628A8F4
:1033400000F01CFA214630A800F018FA20A800F07E
:10335000FFF99DF8A030D907B2460CD510E000F077
:103360003BFA30A800F038FA20A800F023FA9DF8C4
:10337000A030DA0704D49DF8C030DB0728A8EED5CA
:1033800028A918A800F0FAF930A910A800F0F6F959
:10339000684600F0E9F908A800F0DAF938A800F06A
:1033A000E3F907AC0FAD38A918A800F02FFA0028F0
:1033B00000F09C809DF86030DB0707D52BE0684665
:1033C00000F00AFA9DF86030DE0724D418A800F057
:1033D00003FA9DF80030DF07F1D5ADF1040127A80D
:1033E0000022002351F8046F50F8047F921943F132
:1033F0000003B2EB070863F100098C424A46C1F8AA
:1034000000804FEAE973EDD1684600F0E5F99DF8D8
:103410006030DE07DAD59DF84030D80725D406E0C5
:1034200008A800F0D9F99DF84030DA071DD410A89B
:1034300000F0D2F99DF82030D907F1D5214627A810
:103440000022002351F8046F50F8047F921943F1D1
:103450000003B2EB070863F100098D424A46C1F848
:1034600000804FEAE973EDD1DAE710A918A8FFF759
:103470003FFF002841D010A918A800F0C7F9002884
:103480003BD017A8864629460022002351F8046F36
:1034900050F8047F921943F10003B2EB070863F17F
:1034A00000098E454A46C1F800804FEAE973EDD124
:1034B0002146ADF104000022002351F8046F50F8BA
:1034C000047F921943F10003B2EB070863F100098E
:1034D0008D424A46C1F800804FEAE973EDD138A920
:1034E00018A800F093F900287FF464AF08A95046AB
:1034F00000F044F940B0BDE8F08717A928460DF167
:103500007C0E0022002351F8046F50F8047F9219BA
:1035100043F10003B2EB070863F100098E454A4608
:10352000C1F800804FEAE973EDD1ADF10401204606
:103530000022002351F8046F50F8047F921943F1E0
:103540000003B2EB070863F100098C424A46C1F858
:1035500000804FEAE973EDD125E700BF2DE9F04186
:10356000194D80460E460FCD88B06C460FC495E8C5
:103570000F0084E80F00324640466946FFF7DAFE46
:10358000D8F81C30002B1CDAA8F1040E08F11C0C32
:103590007346ADF104020026002753F8040F52F8D9
:1035A000041F341847F10005641845F100059C45D7
:1035B0002E461C604FEAE577EFD1D8F81C30002B7F
:1035C000E6DB08B0BDE8F081C87400082DE9F04FD3
:1035D0000E468FB0144605460A920990FDF716F87C
:1035E000326A236A91B2140C4FEA13491FFA83F826
:1035F00009FB01FB04FB08F31A044FEA0B4A1AEB20
:10360000020A4FEA13434FEA1B4B08FB01F24BEB54
:10361000030B069109FB04F31AEB020105F12007E5
:103620004FF0000E0794A6F1040605F140044BEBA1
:1036300003030B910C93BC4608947546714605969E
:103640000D97059ACDF804E052F8043F05929FB219
:103650001B0C07FB09F003FB08FA02044FEA0A4BB4
:1036600007FB08F712EB0B024FEA10404FEA1A4A29
:1036700040EB0A0AD2190092DDE9006703FB09F367
:103680004AEB030ADCF80030F61847F10007751919
:103690004CF8045B47EB01011AEB01057146494107
:1036A0006445CED1DDF82CA00C9B0D9F1AEB050ACA
:1036B0004EEB01010B449B46DDE906890A9B089D00
:1036C000CDF800B00026A3F1040E3046B446CDF884
:1036D00014A05EF8043FCDF80CC09CB21B0C04FB98
:1036E00009FA03FB08F14FEA0A424FEA014B12EBD9
:1036F0000B024FEA114104FB08F44FEA1A4A4AEB65
:10370000010A12190292DDE9021203FB09F34AEBE6
:10371000030A3B68C91842F100028E1947F8046B8E
:1037200042EB00001AEB000660464041BD42D0D19A
:10373000DDF814A0DDF800B0099B16EB0A0640EB9B
:103740000C0C0BEB0C0058641E640FB0BDE8F08F3E
:1037500000230122C0E90023C0E90233C0E9043399
:10376000C0E90633704700BF0023C0E90033C0E959
:103770000233C0E90433C0E9063370470B1F043835
:103780001C3153F8042F40F8042F8B42F9D17047B5
:1037900030B404395242041F00F11C0554F8040FE0
:1037A00051F8043F434013404340AC422360F5D1FD
:1037B00030BC7047C36902465B0042F81C3F52F8B8
:1037C000041C03EBD173136052F8043D5B0082428A
:1037D0001360F4D1704700BF0368C1695B0830B45F
:1037E0000246036001F0004500F11C04516803EB40
:1037F000C173136052F8043F5B08A2421360F5D115
:10380000C3692B43C36130BC704700BF30B4021F93
:1038100000F11C050439002052F8043F51F8044F10
:10382000AA4283EA040340EA0300F5D130BC7047A2
:103830002DE9F047B8B00D460746896828A8FCF77F
:10384000EBFC28A96A680846FCF7C0FF012428ABF6
:1038500022469E469846DEF81C00D8F81C100E46FC
:10386000E0FB6206E1FB02064FF0130106FB01F1EB
:10387000DEF80060D8F800C0E2FB616C1E60DEF884
:103880000410D8F80460E2FB616C5E60DEF808109A
:10389000D8F80860E2FB616C9E60DEF80C10D8F886
:1038A0000C60E2FB616CDE60DEF81010D8F810608E
:1038B000E2FB616C1E61DEF81410D8F81460E2FBC4
:1038C000616C5E61DEF81810D8F81860E2FB616C7C
:1038D0009E610CEB500CC3F81CC029686846FCF7CD
:1038E0009BFCAA6869466846FCF770FF6B4608AA0D
:1038F00021469846DE69D8F81C008446E6FB616CD8
:10390000E0FB016C4FF013000CFB00F0D3F800C09B
:10391000D8F800E0E1FB60CEC2F800C05868D8F8E3
:1039200004C0E1FB60CEC2F804C09868D8F808C0B3
:10393000E1FB60CEC2F808C0D868D8F80CC0E1FB43
:1039400060CEC2F80CC01869D8F810C0E1FB60CE98
:10395000C2F810C05869D8F814C0E1FB60CEC2F8B4
:1039600014C09869D8F818C0E1FB60CEC2F818C03E
:103970000EEB560EC2F81CE06B4608AA214698468C
:10398000D8F81C60D0698446E6FB616CE0FB016CF2
:103990004FF013000CFB00F0D8F800C0D2F800E0A4
:1039A000E1FB60CEC3F800C0D8F80400D2F804C030
:1039B000E1FB60CEC3F804C0D8F80800D2F808C014
:1039C000E1FB60CEC3F808C0D8F80C00D2F80CC0F8
:1039D000E1FB60CEC3F80CC0D8F81000D2F810C0DC
:1039E000E1FB60CEC3F810C0D8F81400D2F814C0C0
:1039F000E1FB60CEC3F814C0D8F81800D2F818C0A4
:103A0000E1FB60CEC3F818C00EEB560EC3F81CE005
:103A1000A968DFF8D08A08A8FCF7FEFB08A92A6885
:103A20000846FCF7D3FE08A942460846FCF7CEFE3E
:103A300008AB22469E469946DEF81C00D9F81C10B9
:103A40000E46E0FB6206E1FB02064FF0130106FBA7
:103A500001F1DEF80060D9F800C0E2FB616C1E6085
:103A6000DEF80410D9F80460E2FB616C5E60DEF8F9
:103A70000810D9F80860E2FB616C9E60DEF80C105B
:103A8000D9F80C60E2FB616CDE60DEF81010D9F84A
:103A90001060E2FB616C1E61DEF81410D9F814604E
:103AA000E2FB616C5E61DEF81810D9F81860E2FB89
:103AB000616C9E610CEB500CC3F81CC06B4608AAED
:103AC00021469946D9F81C60D0698446E6FB616CB2
:103AD000E0FB016C4FF013000CFB00F0D9F800C0C4
:103AE000D2F800E0E1FB60CEC3F800C0D9F80400D2
:103AF000D2F804C0E1FB60CEC3F804C0D9F80800D6
:103B0000D2F808C0E1FB60CEC3F808C0D9F80C00B9
:103B1000D2F80CC0E1FB60CEC3F80CC0D9F810009D
:103B2000D2F810C0E1FB60CEC3F810C0D9F8140081
:103B3000D2F814C0E1FB60CEC3F814C0D9F8180065
:103B4000D2F818C0E1FB60CEC3F818C00EEB560ED9
:103B5000C3F81CE0A96808A8FCF75EFB08A9AA68DE
:103B60000846FCF733FE6B4608AA21469946D9F869
:103B70001C60D0698446E6FB616CE0FB016C4FF091
:103B800013000CFB00F0D9F800C0D2F800E0E1FB14
:103B900060CEC3F800C0D9F80400D2F804C0E1FB3D
:103BA00060CEC3F804C0D9F80800D2F808C0E1FB21
:103BB00060CEC3F808C0D9F80C00D2F80CC0E1FB05
:103BC00060CEC3F80CC0D9F81000D2F810C0E1FBE9
:103BD00060CEC3F810C0D9F81400D2F814C0E1FBCD
:103BE00060CEC3F814C0D9F81800D2F818C0E1FBB1
:103BF00060CEC3F818C00EEB560EC3F81CE0694641
:103C000008A8FCF709FB28A908AA0846FCF7DEFD6E
:103C1000A96810A8FCF700FB10A918A8FCF7FCFA8B
:103C200018A9AA680846FCF7D1FD696810A8FCF736
:103C3000F3FA18A910AA0846FCF7C8FD18A96A6883
:103C40000846FCF7C3FD18AB22469E469946DEF8AF
:103C50001C00D9F81C100E46E0FB6206E1FB0206D0
:103C60004FF0130106FB01F1DEF80060D9F800C047
:103C7000E2FB616C1E60DEF80410D9F80460E2FB20
:103C8000616C5E60DEF80810D9F80860E2FB616CD8
:103C90009E60DEF80C10D9F80C60E2FB616CDE600F
:103CA000DEF81010D9F81060E2FB616C1E61DEF8DE
:103CB0001410D9F81460E2FB616C5E61DEF8181034
:103CC000D9F81860E2FB616C9E610CEB500CC3F8F4
:103CD0001CC018AB22469E469946DEF81C00D9F857
:103CE0001C100E46E0FB6206E1FB02064FF01301DA
:103CF00006FB01F1DEF80060D9F800C0E2FB616C60
:103D00001E60DEF80410D9F80460E2FB616C5E60AE
:103D1000DEF80810D9F80860E2FB616C9E60DEF8FE
:103D20000C10D9F80C60E2FB616CDE60DEF810105C
:103D3000D9F81060E2FB616C1E61DEF81410D9F84E
:103D40001460E2FB616C5E61DEF81810D9F818604F
:103D5000E2FB616C9E610CEB500CC3F81CC018AB0D
:103D600022469E469946DEF81C00D9F81C100E46E5
:103D7000E0FB6206E1FB02064FF0130106FB01F1D6
:103D8000DEF80060D9F800C0E2FB616C1E60DEF86E
:103D90000410D9F80460E2FB616C5E60DEF8081084
:103DA000D9F80860E2FB616C9E60DEF80C10D9F86F
:103DB0000C60E2FB616CDE60DEF81010D9F8106078
:103DC000E2FB616C1E61DEF81410D9F81460E2FBAE
:103DD000616C5E61DEF81810D9F81860E2FB616C66
:103DE0009E610CEB500CC3F81CC0AA6820A818A94F
:103DF000FCF7ECFC20A942460846FCF7E7FC00264D
:103E000028AB20AA31469946D9F81C00D2F81CC02C
:103E1000B0EB0C007CEB0C0C10EB000E5CEB0C0C14
:103E200040F00040D861ACF101006FF0120C00FBD3
:103E30000CF0D2F800C0D9F800E0E1FB61C0BEEBA5
:103E40000C0EC3F800E0D2F804C0D9F804E0E1FB9E
:103E500061C07EEB0C0EC3F804E0D2F808C0D9F8BC
:103E600008E0E1FB61C07EEB0C0EC3F808E0D2F87D
:103E70000CC0D9F80CE0E1FB61C07EEB0C0EC3F87E
:103E80000CE0D2F810C0D9F810E0E1FB61C07EEB85
:103E90000C0EC3F810E0D2F814C0D9F814E0E1FB1E
:103EA00061C07EEB0C0EC3F814E0D2F818C0D9F84C
:103EB00018E0E1FB61C07EEB0C0EC3F818E0D3F80C
:103EC0001CE07EEB000EC3F81CE02A6818A920A8AD
:103ED000FCF77CFCA96830A8FCF79EF930A9AA6819
:103EE0000846FCF773FC10A930AA0846FCF76EFCE4
:103EF00010AB224699469A46D9F81C00DAF81C10F5
:103F00008C46E0FB620CE1FB020C4FF013010CFB52
:103F100001F1D9F800C0DAF800E0E2FB61CEC3F8A5
:103F200000C0D9F80410DAF804C0E2FB61CEC3F88F
:103F300004C0D9F80810DAF808C0E2FB61CEC3F873
:103F400008C0D9F80C10DAF80CC0E2FB61CEC3F857
:103F50000CC0D9F81010DAF810C0E2FB61CEC3F83B
:103F600010C0D9F81410DAF814C0E2FB61CEC3F81F
:103F700014C0D9F81810DAF818C0E2FB61CEC3F803
:103F800018C00EEB500EC3F81CE010AB2246994649
:103F90009A46D9F81C00DAF81C108C46E0FB620C3B
:103FA000E1FB020C4FF013010CFB01F1D9F800C04A
:103FB000DAF800E0E2FB61CEC3F800C0D9F80410E3
:103FC000DAF804C0E2FB61CEC3F804C0D9F80810E7
:103FD000DAF808C0E2FB61CEC3F808C0D9F80C10CB
:103FE000DAF80CC0E2FB61CEC3F80CC0D9F81010AF
:103FF000DAF810C0E2FB61CEC3F810C0D9F8141093
:10400000DAF814C0E2FB61CEC3F814C0D9F8181076
:10401000DAF818C0E2FB61CEC3F818C00EEB500E00
:10402000C3F81CE0AA68414630A8FCF7CFFB30ABD0
:104030002A6821469946D9F81CC0D0698646ECFB0F
:1040400061CEE0FB01CE4FF013000EFB00F0D9F87B
:1040500000E0D2F80080E1FB60E8C3F800E0D9F8A6
:104060000400D2F804E0E1FB60E8C3F804E0D9F80A
:104070000800D2F808E0E1FB60E8C3F808E0D9F8EE
:104080000C00D2F80CE0E1FB60E8C3F80CE0D9F8D2
:104090001000D2F810E0E1FB60E8C3F810E0D9F8B6
:1040A0001400D2F814E0E1FB60E8C3F814E0D9F89A
:1040B0001800D2F818E0E1FB60E8C3F818E008EB5C
:1040C0005C08C3F81C8030AB2A6821469946D9F8B1
:1040D0001CC0D0698646ECFB61CEE0FB01CE4FF000
:1040E00013000EFB00F0D9F800E0D2F80080E1FBED
:1040F00060E8C3F800E0D9F80400D2F804E0E1FB7E
:1041000060E8C3F804E0D9F80800D2F808E0E1FB61
:1041100060E8C3F808E0D9F80C00D2F80CE0E1FB45
:1041200060E8C3F80CE0D9F81000D2F810E0E1FB29
:1041300060E8C3F810E0D9F81400D2F814E0E1FB0D
:1041400060E8C3F814E0D9F81800D2F818E0E1FBF1
:1041500060E8C3F818E008EB5C08C3F81C8030ABDB
:104160002A6821469946D9F81CC0D0698646ECFBDE
:1041700061CEE0FB01CE4FF013000EFB00F0D9F84A
:1041800000E0D2F80080E1FB60E8C3F800E0D9F875
:104190000400D2F804E0E1FB60E8C3F804E0D9F8D9
:1041A0000800D2F808E0E1FB60E8C3F808E0D9F8BD
:1041B0000C00D2F80CE0E1FB60E8C3F80CE0D9F8A1
:1041C0001000D2F810E0E1FB60E8C3F810E0D9F885
:1041D0001400D2F814E0E1FB60E8C3F814E0D9F869
:1041E0001800D2F818E0E1FB60E8C3F818E008EB2B
:1041F0005C08C3F81C8030A910AA0846FCF7E6FA50
:1042000020AB9E469846DEF81C10D8F81C201046BD
:10421000E1FB6410E2FB04104FF0130200FB02F21A
:10422000DEF80000D8F800C0E4FB620C1860DEF88D
:104230000420D8F80400E4FB620C5860DEF8082083
:10424000D8F80800E4FB620C9860DEF80C20D8F87F
:104250000C00E4FB620CD860DEF81020D8F81000E7
:10426000E4FB620C1861DEF81420D8F81400E4FBBB
:10427000620C5861DEF81820D8F81800E4FB620CD4
:1042800098610CEB510CC3F81CC03A6828AB20A90C
:104290003046DC69D1F81CC0B4EB0C047CEB0C0C90
:1042A00014EB040E5CEB0C0C44F00044D461ACF154
:1042B00001046FF0120C04FB0CF4D1F800C0D3F829
:1042C00000E0E0FB60C4BEEB0C0EC2F800E0D1F8E9
:1042D00004C0D3F804E0E0FB60C47EEB0C0EC2F82F
:1042E00004E0D1F808C0D3F808E0E0FB60C47EEB3E
:1042F0000C0EC2F808E0D1F80CC0D3F80CE0E0FBDB
:1043000060C47EEB0C0EC2F80CE0D1F810C0D3F8FC
:1043100010E0E0FB60C47EEB0C0EC2F810E0D1F8B8
:1043200014C0D3F814E0E0FB60C47EEB0C0EC2F8BE
:1043300014E0D1F818C0D3F818E0E0FB60C47EEBBD
:104340000C0EC2F818E0D2F81CE07EEB040EC2F8A6
:104350001CE030A96A460846FCF738FA08A96A4604
:104360000846FCF733FA30AA08AB31469646DEF829
:104370001C00DC69001BA44110EB000C644140F000
:104380000040D061A4F101006FF0120400FB04F0C2
:104390001C68DEF800C0E1FB6140BCEB040CC2F815
:1043A00000C05C68DEF804C0E1FB61407CEB040CFB
:1043B000C2F804C09C68DEF808C0E1FB61407CEBF9
:1043C000040CC2F808C0DC68DEF80CC0E1FB6140F8
:1043D0007CEB040CC2F80CC01C69DEF810C0E1FBD9
:1043E00061407CEB040CC2F810C05C69DEF814C0BC
:1043F000E1FB61407CEB040CC2F814C09C69DEF860
:1044000018C0E1FB61407CEB040CC2F818C0D2F884
:104410001CC07CEB000CC2F81CC06A6818A920A85C
:10442000FCF7D4F9796830AB20AAD869D469001BAD
:10443000A44110EB000C644140F00040C861A4F1BD
:1044400001006FF0120400FB04F01468D3F800C000
:10445000E6FB6640BCEB040CC1F800C05468D3F81E
:1044600004C0E6FB66407CEB040CC1F804C0946811
:10447000D3F808C0E6FB66407CEB040CC1F808C02A
:10448000D468D3F80CC0E6FB66407CEB040CC1F8A2
:104490000CC01469D3F810C0E6FB66407CEB040C3A
:1044A000C1F810C05469D3F814C0E6FB66407CEB39
:1044B000040CC1F814C09469D3F818C0E6FB664038
:1044C0007CEB040CC1F818C0D1F81CC07CEB000CCC
:1044D000C1F81CC0AA68B86818A9FCF777F938B009
:1044E000BDE8F087E87400082DE9F0411646E0B019
:1044F0000C468A68716805466846FCF767F9B26839
:10450000616808A8FCF762F9B268A16810A8FCF716
:104510005DF9A268316818A8FCF758F9B2682168FB
:1045200020A80024FCF752F96B4608A928AA2046C7
:10453000DE69CF69F61BBF4116EB060C7F4146F0E2
:104540000046D661A7F101066FF0120706FB07F6D9
:104550000F68D3F800C0E0FB6076BCEB070CC2F834
:1045600000C04F68D3F804C0E0FB60767CEB070C1A
:10457000C2F804C08F68D3F808C0E0FB60767CEB1B
:10458000070CC2F808C0CF68D3F80CC0E0FB607617
:104590007CEB070CC2F80CC00F69D3F810C0E0FB2D
:1045A00060767CEB070CC2F810C04F69D3F814C0DA
:1045B000E0FB60767CEB070CC2F814C08F69D3F87F
:1045C00018C0E0FB60767CEB070CC2F818C0D2F88C
:1045D0001CC07CEB060CC2F81CC030AB18AA20A98A
:1045E0002046D669CF69F61BBF4116EB060C7F410A
:1045F00046F00046DE61A7F101066FF0120706FBE8
:1046000007F60F68D2F800C0E0FB6076BCEB070C41
:10461000C3F800C04F68D2F804C0E0FB60767CEBC2
:10462000070CC3F804C08F68D2F808C0E0FB6076BE
:104630007CEB070CC3F808C0CF68D2F80CC0E0FBD5
:1046400060767CEB070CC3F80CC00F69D2F810C081
:10465000E0FB60767CEB070CC3F810C04F69D2F822
:1046600014C0E0FB60767CEB070CC3F814C08F69C4
:10467000D2F818C0E0FB60767CEB070CC3F818C0DA
:10468000D3F81CC07CEB060CC3F81CC0012638AB69
:1046900020AA18A93046D2F81CC0CF69BE46ECFB50
:1046A00060CEE7FB00CE4FF013070EFB07F7D2F802
:1046B00000E0D1F80080E0FB67E8C3F800E057684D
:1046C000D1F804E0E0FB67E8C3F804E09768D1F8AC
:1046D00008E0E0FB67E8C3F808E0D768D1F80CE031
:1046E000E0FB67E8C3F80CE01769D1F810E0E0FBE5
:1046F00067E8C3F810E05769D1F814E0E0FB67E819
:10470000C3F814E09769D1F818E0E0FB67E8C3F854
:1047100018E008EB5C08C3F81C8040A828A9FBF748
:104720007BFD40A930AA0846FCF750F840A910AA22
:104730000846FCF74BF848A810AAD249FCF746F8FF
:1047400038AB50AA20A93046D3F81CC0CF69BE466A
:10475000ECFB60CEE7FB00CE4FF013070EFB07F734
:10476000D3F800E0D1F80080E0FB67E8C2F800E091
:104770005F68D1F804E0E0FB67E8C2F804E09F68F6
:10478000D1F808E0E0FB67E8C2F808E0DF68D1F89C
:104790000CE0E0FB67E8C2F80CE01F69D1F810E01C
:1047A000E0FB67E8C2F810E05F69D1F814E0E0FBD5
:1047B00067E8C2F814E09F69D1F818E0E0FB67E809
:1047C000C2F818E008EB5C08C2F81C8050AB48AA9D
:1047D00031469846D8F81C70D0698446E7FB617C66
:1047E000E0FB017C4FF013000CFB00F0D8F800C098
:1047F000D2F800E0E1FB60CEC3F800C0D8F80400B6
:10480000D2F804C0E1FB60CEC3F804C0D8F80800B9
:10481000D2F808C0E1FB60CEC3F808C0D8F80C009D
:10482000D2F80CC0E1FB60CEC3F80CC0D8F8100081
:10483000D2F810C0E1FB60CEC3F810C0D8F8140065
:10484000D2F814C0E1FB60CEC3F814C0D8F8180049
:10485000D2F818C0E1FB60CEC3F818C00EEB570EBB
:10486000C3F81CE058A830A9FBF7D6FC30AA58A919
:104870001046FBF7ABFF58A928AA0846FBF7A6FF8E
:1048800058A950AA0846FBF7A1FF48AB18AA314621
:104890009846D8F81C70D0698446E7FB617CE0FB41
:1048A000017C4FF013000CFB00F0D8F800C0D2F8E8
:1048B00000E0E1FB60CEC3F800C0D8F80400D2F8F5
:1048C00004C0E1FB60CEC3F804C0D8F80800D2F8F9
:1048D00008C0E1FB60CEC3F808C0D8F80C00D2F8DD
:1048E0000CC0E1FB60CEC3F80CC0D8F81000D2F8C1
:1048F00010C0E1FB60CEC3F810C0D8F81400D2F8A5
:1049000014C0E1FB60CEC3F814C0D8F81800D2F888
:1049100018C0E1FB60CEC3F818C00EEB570EC3F809
:104920001CE048AB20AA31469E46DEF81C60D069E8
:104930000746E6FB6167E0FB01674FF0130007FBEA
:1049400000F0DEF80070D2F800C0E1FB607C1F6070
:10495000DEF804005768E1FB607C5F60DEF8080069
:104960009768E1FB607C9F60DEF80C00D768E1FB94
:10497000607CDF60DEF810001769E1FB607C1F617E
:10498000DEF814005769E1FB607C5F61DEF8180017
:104990009769E1FB607C9F610CEB560CC3F81CC06F
:1049A00048A930AA0846FBF711FF2A6848AB40A97E
:1049B0002046CE69DF69F61BBF4116EB060C7F412E
:1049C00046F00046D661A7F101066FF0120706FB1C
:1049D00007F61F68D1F800C0E0FB6076BCEB070C5F
:1049E000C2F800C05F68D1F804C0E0FB60767CEBE1
:1049F000070CC2F804C09F68D1F808C0E0FB6076DD
:104A00007CEB070CC2F808C0DF68D1F80CC0E0FBF3
:104A100060767CEB070CC2F80CC01F69D1F810C09F
:104A2000E0FB60767CEB070CC2F810C05F69D1F840
:104A300014C0E0FB60767CEB070CC2F814C09F69E1
:104A4000D1F818C0E0FB60767CEB070CC2F818C008
:104A5000D2F81CC07CEB060CC2F81CC028A940A8E8
:104A6000FBF7DAFB40A928AA0846FBF7AFFE40A9EE
:104A700010AA0846FBF7AAFE6A6858AB40A9204670
:104A800002E000BFE8740008DE69CF69F61BBF4191
:104A900016EB060C7F4146F00046D661A7F10106F1
:104AA0006FF0120706FB07F60F68D3F800C0E0FBB3
:104AB0006076BCEB070CC2F800C04F68D3F804C0A6
:104AC000E0FB60767CEB070CC2F804C08F68D3F87B
:104AD00008C0E0FB60767CEB070CC2F808C0CF682A
:104AE000D3F80CC0E0FB60767CEB070CC2F80CC07E
:104AF0000F69D3F810C0E0FB60767CEB070CC2F8BE
:104B000010C04F69D3F814C0E0FB60767CEB070C53
:104B1000C2F814C08F69D3F818C0E0FB60767CEB54
:104B2000070CC2F818C0D2F81CC07CEB060CC2F807
:104B30001CC030AA08A940A8FBF748FE6A6840AB31
:104B40001746F969D869091A80414E18404141F069
:104B50000041D161A0F101016FF0120001FB00F1F1
:104B600018683E68E4FB6401361A166058687E686F
:104B7000E4FB6401864156609868BE68E4FB64010A
:104B800086419660D868FE68E4FB64018641D66081
:104B900018693E69E4FB64018641166158697E69C3
:104BA000E4FB6401864156619869BE69E4FB6401D7
:104BB00086419661D6698E41D661A86830AA10A94F
:104BC000FBF704FE60B0BDE8F08100BF2DE9F04FB7
:104BD00000F1200591B000F14006074600F16008A1
:104BE00000F180092A4631466B460120D2F81CC0EC
:104BF000CC69A646ECFB60CEE4FB00CE4FF013047C
:104C00000EFB04F4D2F800E0D1F800A0E0FB64EA67
:104C1000C3F800E05468D1F804E0E0FB64EAC3F8AC
:104C200004E09468D1F808E0E0FB64EAC3F808E027
:104C3000D468D1F80CE0E0FB64EAC3F80CE0146936
:104C4000D1F810E0E0FB64EAC3F810E05469D1F851
:104C500014E0E0FB64EAC3F814E09469D1F818E0CA
:104C6000E0FB64EAC3F818E00AEB5C0AC3F81CA096
:104C7000002408AB2A4631462046D2F81CC0D1F8A1
:104C80001CE0BCEB0E0C7EEB0E0E1CEB0C0A5EEB7C
:104C90000E0E4CF0004CC3F81CC0AEF1010C6FF0CE
:104CA000120E0CFB0EFCD1F800E0D2F800A0E0FBE5
:104CB00060ECBAEB0E0AC3F800A0D1F804E0D2F819
:104CC00004A0E0FB60EC7AEB0E0AC3F804A0D1F874
:104CD00008E0D2F808A0E0FB60EC7AEB0E0AC3F81B
:104CE00008A0D1F80CE0D2F80CA0E0FB60EC7AEB65
:104CF0000E0AC3F80CA0D1F810E0D2F810A0E0FB27
:104D000060EC7AEB0E0AC3F810A0D1F814E0D2F8E8
:104D100014A0E0FB60EC7AEB0E0AC3F814A0D1F803
:104D200018E0D2F818A0E0FB60EC7AEB0E0AC3F8AA
:104D300018A0D3F81CA07AEB0C0AC3F81CA0012021
:104D40002B4642464946D2F81CE0D1F81CC0E24648
:104D5000EEFB60EAECFB00EA4FF0130C0AFB0CFCE4
:104D6000D2F800A0D1F800B0E0FB6CABC3F800A013
:104D7000D2F804C0D1F804A0E0FB6CABC3F804A0E7
:104D8000D2F808C0D1F808A0E0FB6CABC3F808A0CB
:104D9000D2F80CC0D1F80CA0E0FB6CABC3F80CA0AF
:104DA000D2F810C0D1F810A0E0FB6CABC3F810A093
:104DB000D2F814C0D1F814A0E0FB6CABC3F814A077
:104DC000D2F818C0D1F818A0E0FB6CABC3F818A05B
:104DD0000BEB5E0BC3F81CB03346424649462046F7
:104DE000D2F81CC0D1F81CE0BCEB0E0C7EEB0E0E12
:104DF0001CEB0C0A5EEB0E0E4CF0004CC3F81CC012
:104E0000AEF1010C6FF0120E0CFB0EFCD1F800E0BD
:104E1000D2F800A0E0FB60ECBAEB0E0AC3F800A0E9
:104E2000D1F804E0D2F804A0E0FB60EC7AEB0E0AC3
:104E3000C3F804A0D1F808E0D2F808A0E0FB60ECC9
:104E40007AEB0E0AC3F808A0D1F80CE0D2F80CA057
:104E5000E0FB60EC7AEB0E0AC3F80CA0D1F810E08E
:104E6000D2F810A0E0FB60EC7AEB0E0AC3F810A0B9
:104E7000D1F814E0D2F814A0E0FB60EC7AEB0E0A53
:104E8000C3F814A0D1F818E0D2F818A0E0FB60EC49
:104E90007AEB0E0AC3F818A0D3F81CA07AEB0C0A20
:104EA000C3F81CA06A4631464046FBF78FFC08AAAF
:104EB00029463046FBF78AFC01232A463146404604
:104EC000D1F81CE0D0F81CC0E246EEFB63EAECFB34
:104ED00003EA4FF0130C0AFB0CFCD1F800A0D0F849
:104EE00000B0E3FB6CABC2F800A0D1F804C0D0F86E
:104EF00004A0E3FB6CABC2F804A0D1F808C0D0F862
:104F000008A0E3FB6CABC2F808A0D1F80CC0D0F845
:104F10000CA0E3FB6CABC2F80CA0D1F810C0D0F829
:104F200010A0E3FB6CABC2F810A0D1F814C0D0F80D
:104F300014A0E3FB6CABC2F814A0D1F818C0D0F8F1
:104F400018A0E3FB6CABC2F818A00BEB5E0BC2F829
:104F50001CB04B46424631462046D2F81CC0D1F820
:104F60001CE0BCEB0E0C7EEB0E0E1CEB0C0A5EEB99
:104F70000E0E4CF0004CC3F81CC0AEF1010C6FF0EB
:104F8000120E0CFB0EFCD1F800E0D2F800A0E0FB02
:104F900060ECBAEB0E0AC3F800A0D1F804E0D2F836
:104FA00004A0E0FB60EC7AEB0E0AC3F804A0D1F891
:104FB00008E0D2F808A0E0FB60EC7AEB0E0AC3F838
:104FC00008A0D1F80CE0D2F80CA0E0FB60EC7AEB82
:104FD0000E0AC3F80CA0D1F810E0D2F810A0E0FB44
:104FE00060EC7AEB0E0AC3F810A0D1F814E0D2F806
:104FF00014A0E0FB60EC7AEB0E0AC3F814A0D1F821
:1050000018E0D2F818A0E0FB60EC7AEB0E0AC3F8C7
:1050100018A0D3F81CA07AEB0C0AC3F81CA04046D9
:105020002946FBF7F9F849462846FBF7F5F83A46D2
:1050300029464846FBF7CAFB69462846FBF7ECF8C9
:1050400008A96846FBF7E8F833462A466946D0695E
:10505000CF69C01BBF4110EB000C7F4140F0004006
:10506000D861A7F101006FF0120700FB07F00F688D
:10507000D2F800C0E4FB6470BCEB070CC3F800C0BE
:105080004F68D2F804C0E4FB64707CEB070CC3F8F3
:1050900004C08F68D2F808C0E4FB64707CEB070C96
:1050A000C3F808C0CF68D2F80CC0E4FB64707CEB96
:1050B000070CC3F80CC00F69D2F810C0E4FB647091
:1050C0007CEB070CC3F810C04F69D2F814C0E4FBA6
:1050D00064707CEB070CC3F814C08F69D2F818C059
:1050E000E4FB64707CEB070CC3F818C0D3F81CC059
:1050F0007CEB000CC3F81CC02A4628466946FBF727
:1051000065FB224A6B4608A93046DC69C76902EB99
:10511000020C2546ECFB67454FF0130707FB05F52E
:10512000D0F800C01F68E2FB6C750F60D0F804C0B7
:105130005F68E2FB6C754F60D0F808C09F68E2FBC7
:105140006C758F60D0F80CC0DF68E2FB6C75CF60C7
:10515000D0F810C01F69E2FB6C750F61D0F814C065
:105160005F69E2FB6C754F61D0F818C09F69E2FB84
:105170006C758F6105EB5404CC6108A9324630464A
:10518000FBF724FB11B0BDE8F08F00BF42DB01004C
:105190002DE9F04FA3B0DDE92C890F4605464946BD
:1051A00002A801249A4616460195FBF70FFB3946E3
:1051B00002AB0AAA2046D1F81CC0DD69AE46ECFB62
:1051C00060CEE5FB00CE4FF013050EFB05F5D1F8E0
:1051D00000E0D3F800B0E0FB65EBC2F800E04D68FA
:1051E000D3F804E0E0FB65EBC2F804E08D68D3F887
:1051F00008E0E0FB65EBC2F808E0CD68D3F80CE00E
:10520000E0FB65EBC2F80CE00D69D3F810E0E0FBC1
:1052100065EBC2F810E04D69D3F814E0E0FB65EBF4
:10522000C2F814E08D69D3F818E0E0FB65EBC2F832
:1052300018E00BEB5C0BC2F81CB0002512AB3A4631
:1052400002A92846D2F81CC0D1F81CE0BCEB0E0C19
:105250007EEB0E0E1CEB0C0B5EEB0E0E4CF0004CBE
:10526000C3F81CC0AEF1010C6FF0120E0CFB0EFC6B
:10527000D1F800E0D2F800B0E0FB60ECBBEB0E0B25
:10528000C3F800B0D1F804E0D2F804B0E0FB60EC61
:105290007BEB0E0BC3F804B0D1F808E0D2F808B0ED
:1052A000E0FB60EC7BEB0E0BC3F808B0D1F80CE030
:1052B000D2F80CB0E0FB60EC7BEB0E0BC3F80CB04B
:1052C000D1F810E0D2F810B0E0FB60EC7BEB0E0BF5
:1052D000C3F810B0D1F814E0D2F814B0E0FB60ECE1
:1052E0007BEB0E0BC3F814B0D1F818E0D2F818B06D
:1052F000E0FB60EC7BEB0E0BC3F818B0D3F81CB0EE
:105300007BEB0C0BC3F81CB012AB19461846FAF72E
:1053100083FF12AB524619461846FBF757FAE34B88
:1053200002AA21469B46D3F81CC0DBF81C00864627
:10533000ECFB61CEE0FB01CE4FF013000EFB00F062
:10534000D3F800E0DBF800A0E1FB60EAC2F800E07F
:105350005868DBF804E0E1FB60EAC2F804E0986812
:10536000DBF808E0E1FB60EAC2F808E0D868DBF8A7
:105370000CE0E1FB60EAC2F80CE01869DBF810E031
:10538000E1FB60EAC2F810E05869DBF814E0E1FBE9
:1053900060EAC2F814E09869DBF818E0E1FB60EA23
:1053A000C2F818E00AEB5C0AC2F81CA002A9324657
:1053B0000846FBF70BFA0AAB02AA21469B46DBF82C
:1053C0001CC0D0698646ECFB61CEE0FB01CE4FF0FD
:1053D00013000EFB00F0DBF800E0D2F800A0E1FBC8
:1053E00060EAC3F800E0DBF80400D2F804E0E1FB77
:1053F00060EAC3F804E0DBF80800D2F808E0E1FB5B
:1054000060EAC3F808E0DBF80C00D2F80CE0E1FB3E
:1054100060EAC3F80CE0DBF81000D2F810E0E1FB22
:1054200060EAC3F810E0DBF81400D2F814E0E1FB06
:1054300060EAC3F814E0DBF81800D2F818E0E1FBEA
:1054400060EAC3F818E00AEB5C0AC3F81CA04946FE
:105450003A461AA8FBF7BAF91AAB324621469A46E1
:10546000DAF81CC0D0698646ECFB61CEE0FB01CEC9
:105470004FF013000EFB00F0DAF800E0D2F80090D5
:10548000E1FB60E9C3F800E0DAF80400D2F804E0D8
:10549000E1FB60E9C3F804E0DAF80800D2F808E0BC
:1054A000E1FB60E9C3F808E0DAF80C00D2F80CE0A0
:1054B000E1FB60E9C3F80CE0DAF81000D2F810E084
:1054C000E1FB60E9C3F810E0DAF81400D2F814E068
:1054D000E1FB60E9C3F814E0DAF81800D2F818E04C
:1054E000E1FB60E9C3F818E009EB5C09C3F81C9024
:1054F0000AAB194618461AAAFBF768F902A9324600
:105500000846FBF763F90AAB02AA29469946D9F87F
:105510001C00D2F81CC0B0EB0C007CEB0C0C10EBA8
:10552000000E5CEB0C0C40F00040D861ACF10100C7
:105530006FF0120C00FB0CF0D2F800C0D9F800E0BC
:10554000E1FB61C0BEEB0C0EC3F800E0D2F804C072
:10555000D9F804E0E1FB61C07EEB0C0EC3F804E077
:10556000D2F808C0D9F808E0E1FB61C07EEB0C0E70
:10557000C3F808E0D2F80CC0D9F80CE0E1FB61C038
:105580007EEB0C0EC3F80CE0D2F810C0D9F810E096
:10559000E1FB61C07EEB0C0EC3F810E0D2F814C042
:1055A000D9F814E0E1FB61C07EEB0C0EC3F814E007
:1055B000D2F818C0D9F818E0E1FB61C07EEB0C0E00
:1055C000C3F818E0D3F81CE07EEB000EC3F81CE033
:1055D0000AAB424619461846FBF7F8F801990AABA0
:1055E00012AAD869D2F81CC0B0EB0C007CEB0C0CF2
:1055F00010EB000E5CEB0C0C40F00040C861ACF10D
:1056000001006FF0120C00FB0CF0D2F800C0D3F8D0
:1056100000E0E5FB65C0BEEB0C0EC1F800E0D2F87F
:1056200004C0D3F804E0E5FB65C07EEB0C0EC1F8C6
:1056300004E0D2F808C0D3F808E0E5FB65C07EEBD3
:105640000C0EC1F808E0D2F80CC0D3F80CE0E5FB72
:1056500065C07EEB0C0EC1F80CE0D2F810C0D3F898
:1056600010E0E5FB65C07EEB0C0EC1F810E0D2F84F
:1056700014C0D3F814E0E5FB65C07EEB0C0EC1F856
:1056800014E0D2F818C0D3F818E0E5FB65C07EEB53
:105690000C0EC1F818E0D1F81CE07EEB000EC1F84A
:1056A0001CE02E9B02AA9E4602E000BFE8740008A0
:1056B000D869DEF81C100D46E0FB6405E1FB04052B
:1056C0004FF0130105FB01F11D68DEF800C0E4FB9B
:1056D000615C15605968DEF80450E4FB615C55605C
:1056E0009968DEF80850E4FB615C9560D968DEF8E3
:1056F0000C50E4FB615CD5601969DEF81050E4FBE6
:10570000615C15615969DEF81450E4FB615C556118
:105710009969DEF81850E4FB615C95610CEB500C64
:10572000C2F81CC002A932460846FBF74FF802A98E
:1057300042460846FBF74AF83A4602A93846FBF7C4
:1057400045F8324602A93046FBF740F823B0BDE8E1
:10575000F08F00BFF0B583B00646144668460025BA
:10576000082200230F46CDE9005500F0A5FBDDE936
:1057700000530121A14025EA010585EA070161FAEC
:1057800004F4204606F1600206F12001FAF712FE49
:10579000019B204606F1800206F14001FAF70AFE5D
:1057A00003B0F0BD10B54749EEB001F1200301F19F
:1057B000400401F16002039301F180030494059217
:1057C00001F1A00416AA06931EAB0EA80794099235
:1057D00026AC2EAA0A9336ABCDE90B420D9302916B
:1057E0000890FDF791FA03990998FDF78DFA04994D
:1057F0000A98FDF789FA05990B98FDF785FA06993D
:105800000C98FDF781FA07990D98FDF77DFA0DF1D7
:1058100007000122002300F04FFB072401E0631C76
:105820001BD002A90846FEF703F805A90846FDF7B4
:10583000FFFF9DF80730234113F0010F04F1FF34FF
:10584000EDD002A9084608AAFEF74EFE05A90BAA4C
:105850000846FEF749FE631CE3D13EA8FDF75EFA59
:10586000082200233EA800F027FBDDE93E23134376
:10587000F6D000235EA8402200F01EFB5EA956A8C9
:10588000FAF738FE56AA4EA83EA9FDF721FD4EA90B
:105890000846FDF763FE56AA4EA946A8FDF718FD77
:1058A000094946AA0846FDF713FD084AA2F120015E
:1058B0000846FDF70DFD05483EA9FDF75FFF6EB0F8
:1058C00010BD00BF00000020C0000020E00000204C
:1058D0002DE9F043ADF52B7D4FF0FF3405946F4C6F
:1058E0000026202200238846074606960DF27F25D3
:1058F00000F0E2FA04F1200114F8013F05F8013F3D
:1059000006AA3346136803F109031360A142F3D1D9
:10591000414670A8FDF7E6F988A8FDF709FA90A8B6
:10592000FDF7FCF970A978A8FDF7EEF980A8FDF75E
:10593000FFF906AB1E6806F109061E60584B78ADEC
:10594000079580AD03F1200403F1400260A870A91F
:10595000099510ADCDE90A340C920895FAF75CFC74
:1059600060A958A870AAFAF731FF60A908464D4A05
:10597000FAF72CFF012258AB60A910469E46DEF8CC
:105980001C50CC692646E5FB6056E4FB00564FF000
:10599000130406FB04F4DEF80060D1F800C0E0FB5D
:1059A000646C1E60DEF804404E68E0FB646C5E6070
:1059B000DEF808408E68E0FB646C9E60DEF80C4008
:1059C000CE68E0FB646CDE60DEF810400E69E0FB40
:1059D000646C1E61DEF814404E69E0FB646C5E612D
:1059E000DEF818408E69E0FB646C9E610CEB550C90
:1059F000C3F81CC058AB70A99C46DCF81C40C869B1
:105A00000546E4FB6245E0FB02454FF0130005FB51
:105A100000F0DCF800500E68E2FB60561D60DCF818
:105A200004004D68E2FB60565D60DCF808008D689C
:105A3000E2FB60569D60DCF80C00CD68E2FB60562E
:105A4000DD60DCF810000D69E2FB60561D61DCF8DA
:105A500014004D69E2FB60565D61DCF818008D6949
:105A6000E2FB60569D6106EB5406DE6158A910A862
:105A7000FDF7FAF9C0B14FF0FF312022002378A8DA
:105A8000059100F019FA384678A9FDF7BBF9FFF740
:105A900089FE05980DF52B7DBDE8F083BF00002041
:105AA00000000020E874000807A90AAA0846FEF7CB
:105AB0001BFD07A90846FDF7BBFE07A90846FDF731
:105AC000B7FE07A90846FDF7B3FE98A8FDF726F92B
:105AD0000822002398A800F0EFF9DDE9982313438A
